{
	"consumer/x.sol": {
		"VrfGen": {
			"abi": [
				{
					"inputs": [
						{
							"internalType": "uint256",
							"name": "subscriptionId",
							"type": "uint256"
						}
					],
					"stateMutability": "nonpayable",
					"type": "constructor"
				},
				{
					"inputs": [
						{
							"internalType": "address",
							"name": "have",
							"type": "address"
						},
						{
							"internalType": "address",
							"name": "want",
							"type": "address"
						}
					],
					"name": "OnlyCoordinatorCanFulfill",
					"type": "error"
				},
				{
					"inputs": [
						{
							"internalType": "address",
							"name": "have",
							"type": "address"
						},
						{
							"internalType": "address",
							"name": "owner",
							"type": "address"
						},
						{
							"internalType": "address",
							"name": "coordinator",
							"type": "address"
						}
					],
					"name": "OnlyOwnerOrCoordinator",
					"type": "error"
				},
				{
					"inputs": [],
					"name": "ZeroAddress",
					"type": "error"
				},
				{
					"anonymous": false,
					"inputs": [
						{
							"indexed": false,
							"internalType": "address",
							"name": "vrfCoordinator",
							"type": "address"
						}
					],
					"name": "CoordinatorSet",
					"type": "event"
				},
				{
					"anonymous": false,
					"inputs": [
						{
							"indexed": true,
							"internalType": "address",
							"name": "from",
							"type": "address"
						},
						{
							"indexed": true,
							"internalType": "address",
							"name": "to",
							"type": "address"
						}
					],
					"name": "OwnershipTransferRequested",
					"type": "event"
				},
				{
					"anonymous": false,
					"inputs": [
						{
							"indexed": true,
							"internalType": "address",
							"name": "from",
							"type": "address"
						},
						{
							"indexed": true,
							"internalType": "address",
							"name": "to",
							"type": "address"
						}
					],
					"name": "OwnershipTransferred",
					"type": "event"
				},
				{
					"anonymous": false,
					"inputs": [
						{
							"indexed": true,
							"internalType": "uint256",
							"name": "requestId",
							"type": "uint256"
						}
					],
					"name": "RequestRandomWordsEvent",
					"type": "event"
				},
				{
					"inputs": [],
					"name": "acceptOwnership",
					"outputs": [],
					"stateMutability": "nonpayable",
					"type": "function"
				},
				{
					"inputs": [],
					"name": "owner",
					"outputs": [
						{
							"internalType": "address",
							"name": "",
							"type": "address"
						}
					],
					"stateMutability": "view",
					"type": "function"
				},
				{
					"inputs": [
						{
							"internalType": "bool",
							"name": "enableNativePayment",
							"type": "bool"
						}
					],
					"name": "randomReq",
					"outputs": [
						{
							"internalType": "uint256",
							"name": "",
							"type": "uint256"
						}
					],
					"stateMutability": "nonpayable",
					"type": "function"
				},
				{
					"inputs": [
						{
							"internalType": "uint256",
							"name": "requestId",
							"type": "uint256"
						},
						{
							"internalType": "uint256[]",
							"name": "randomWords",
							"type": "uint256[]"
						}
					],
					"name": "rawFulfillRandomWords",
					"outputs": [],
					"stateMutability": "nonpayable",
					"type": "function"
				},
				{
					"inputs": [],
					"name": "s_vrfCoordinator",
					"outputs": [
						{
							"internalType": "contract IVRFCoordinatorV2Plus",
							"name": "",
							"type": "address"
						}
					],
					"stateMutability": "view",
					"type": "function"
				},
				{
					"inputs": [
						{
							"internalType": "address",
							"name": "_vrfCoordinator",
							"type": "address"
						}
					],
					"name": "setCoordinator",
					"outputs": [],
					"stateMutability": "nonpayable",
					"type": "function"
				},
				{
					"inputs": [
						{
							"internalType": "address",
							"name": "to",
							"type": "address"
						}
					],
					"name": "transferOwnership",
					"outputs": [],
					"stateMutability": "nonpayable",
					"type": "function"
				}
			],
			"devdoc": {
				"kind": "dev",
				"methods": {},
				"version": 1
			},
			"evm": {
				"assembly": "    /* \"consumer/x.sol\":442:2376  contract VrfGen is VRFConsumerBaseV2Plus {... */\n  mstore(0x40, 0x80)\n    /* \"consumer/x.sol\":623:665  0xd9145CCE52D386f254917e481eB44e9943F39138 */\n  0xd9145cce52d386f254917e481eb44e9943f39138\n    /* \"consumer/x.sol\":598:665  address vrfCoordinator = 0xd9145CCE52D386f254917e481eB44e9943F39138 */\n  0x05\n  exp(0x0100, 0x00)\n  dup2\n  sload\n  dup2\n  0xffffffffffffffffffffffffffffffffffffffff\n  mul\n  not\n  and\n  swap1\n  dup4\n  0xffffffffffffffffffffffffffffffffffffffff\n  and\n  mul\n  or\n  swap1\n  sstore\n  pop\n    /* \"consumer/x.sol\":688:754  0x787d74caea10b2b357790d5b5247c2f63d1d91572a9846f780606e4d953677ae */\n  0x787d74caea10b2b357790d5b5247c2f63d1d91572a9846f780606e4d953677ae\n    /* \"consumer/x.sol\":668:754  bytes32 s_keyHash = 0x787d74caea10b2b357790d5b5247c2f63d1d91572a9846f780606e4d953677ae */\n  0x00\n  shl\n  0x06\n  sstore\n    /* \"consumer/x.sol\":783:788  40000 */\n  0x9c40\n    /* \"consumer/x.sol\":757:788  uint32 callbackGasLimit = 40000 */\n  0x07\n  exp(0x0100, 0x00)\n  dup2\n  sload\n  dup2\n  0xffffffff\n  mul\n  not\n  and\n  swap1\n  dup4\n  0xffffffff\n  and\n  mul\n  or\n  swap1\n  sstore\n  pop\n    /* \"consumer/x.sol\":821:822  5 */\n  0x05\n    /* \"consumer/x.sol\":791:822  uint16 requestConfirmations = 5 */\n  0x07\n  exp(0x0100, 0x04)\n  dup2\n  sload\n  dup2\n  0xffff\n  mul\n  not\n  and\n  swap1\n  dup4\n  0xffff\n  and\n  mul\n  or\n  swap1\n  sstore\n  pop\n    /* \"consumer/x.sol\":844:845  3 */\n  0x03\n    /* \"consumer/x.sol\":825:845  uint32 numWords =  3 */\n  0x07\n  exp(0x0100, 0x06)\n  dup2\n  sload\n  dup2\n  0xffffffff\n  mul\n  not\n  and\n  swap1\n  dup4\n  0xffffffff\n  and\n  mul\n  or\n  swap1\n  sstore\n  pop\n    /* \"consumer/x.sol\":1244:1409  constructor(uint256 subscriptionId) VRFConsumerBaseV2Plus(vrfCoordinator) {... */\n  callvalue\n  dup1\n  iszero\n  tag_1\n  jumpi\n  0x00\n  dup1\n  revert\ntag_1:\n  pop\n  mload(0x40)\n  sub(codesize, bytecodeSize)\n  dup1\n  bytecodeSize\n  dup4\n  codecopy\n  dup2\n  dup2\n  add\n  0x40\n  mstore\n  dup2\n  add\n  swap1\n  tag_2\n  swap2\n  swap1\n  tag_3\n  jump\t// in\ntag_2:\n    /* \"consumer/x.sol\":1302:1316  vrfCoordinator */\n  0x05\n  0x00\n  swap1\n  sload\n  swap1\n  0x0100\n  exp\n  swap1\n  div\n  0xffffffffffffffffffffffffffffffffffffffff\n  and\n    /* \"@chainlink/contracts@1.2.0/src/v0.8/vrf/dev/VRFConsumerBaseV2Plus.sol\":6254:6264  msg.sender */\n  caller\n    /* \"@chainlink/contracts@1.2.0/src/v0.8/shared/access/ConfirmedOwner.sol\":355:363  newOwner */\n  dup1\n    /* \"@chainlink/contracts@1.2.0/src/v0.8/shared/access/ConfirmedOwner.sol\":373:374  0 */\n  0x00\n    /* \"@chainlink/contracts@1.2.0/src/v0.8/shared/access/ConfirmedOwnerWithProposal.sol\":618:619  0 */\n  dup1\n    /* \"@chainlink/contracts@1.2.0/src/v0.8/shared/access/ConfirmedOwnerWithProposal.sol\":598:620  newOwner != address(0) */\n  0xffffffffffffffffffffffffffffffffffffffff\n  and\n    /* \"@chainlink/contracts@1.2.0/src/v0.8/shared/access/ConfirmedOwnerWithProposal.sol\":598:606  newOwner */\n  dup3\n    /* \"@chainlink/contracts@1.2.0/src/v0.8/shared/access/ConfirmedOwnerWithProposal.sol\":598:620  newOwner != address(0) */\n  0xffffffffffffffffffffffffffffffffffffffff\n  and\n  sub\n    /* \"@chainlink/contracts@1.2.0/src/v0.8/shared/access/ConfirmedOwnerWithProposal.sol\":590:649  require(newOwner != address(0), \"Cannot set owner to zero\") */\n  tag_9\n  jumpi\n  mload(0x40)\n  0x08c379a000000000000000000000000000000000000000000000000000000000\n  dup2\n  mstore\n  0x04\n  add\n  tag_10\n  swap1\n  tag_11\n  jump\t// in\ntag_10:\n  mload(0x40)\n  dup1\n  swap2\n  sub\n  swap1\n  revert\ntag_9:\n    /* \"@chainlink/contracts@1.2.0/src/v0.8/shared/access/ConfirmedOwnerWithProposal.sol\":666:674  newOwner */\n  dup2\n    /* \"@chainlink/contracts@1.2.0/src/v0.8/shared/access/ConfirmedOwnerWithProposal.sol\":656:663  s_owner */\n  0x00\n  dup1\n    /* \"@chainlink/contracts@1.2.0/src/v0.8/shared/access/ConfirmedOwnerWithProposal.sol\":656:674  s_owner = newOwner */\n  0x0100\n  exp\n  dup2\n  sload\n  dup2\n  0xffffffffffffffffffffffffffffffffffffffff\n  mul\n  not\n  and\n  swap1\n  dup4\n  0xffffffffffffffffffffffffffffffffffffffff\n  and\n  mul\n  or\n  swap1\n  sstore\n  pop\n    /* \"@chainlink/contracts@1.2.0/src/v0.8/shared/access/ConfirmedOwnerWithProposal.sol\":708:709  0 */\n  0x00\n    /* \"@chainlink/contracts@1.2.0/src/v0.8/shared/access/ConfirmedOwnerWithProposal.sol\":684:710  pendingOwner != address(0) */\n  0xffffffffffffffffffffffffffffffffffffffff\n  and\n    /* \"@chainlink/contracts@1.2.0/src/v0.8/shared/access/ConfirmedOwnerWithProposal.sol\":684:696  pendingOwner */\n  dup2\n    /* \"@chainlink/contracts@1.2.0/src/v0.8/shared/access/ConfirmedOwnerWithProposal.sol\":684:710  pendingOwner != address(0) */\n  0xffffffffffffffffffffffffffffffffffffffff\n  and\n  eq\n    /* \"@chainlink/contracts@1.2.0/src/v0.8/shared/access/ConfirmedOwnerWithProposal.sol\":680:759  if (pendingOwner != address(0)) {... */\n  tag_12\n  jumpi\n    /* \"@chainlink/contracts@1.2.0/src/v0.8/shared/access/ConfirmedOwnerWithProposal.sol\":720:752  _transferOwnership(pendingOwner) */\n  tag_13\n    /* \"@chainlink/contracts@1.2.0/src/v0.8/shared/access/ConfirmedOwnerWithProposal.sol\":739:751  pendingOwner */\n  dup2\n    /* \"@chainlink/contracts@1.2.0/src/v0.8/shared/access/ConfirmedOwnerWithProposal.sol\":720:738  _transferOwnership */\n  shl(0x20, tag_14)\n    /* \"@chainlink/contracts@1.2.0/src/v0.8/shared/access/ConfirmedOwnerWithProposal.sol\":720:752  _transferOwnership(pendingOwner) */\n  0x20\n  shr\n  jump\t// in\ntag_13:\n    /* \"@chainlink/contracts@1.2.0/src/v0.8/shared/access/ConfirmedOwnerWithProposal.sol\":680:759  if (pendingOwner != address(0)) {... */\ntag_12:\n    /* \"@chainlink/contracts@1.2.0/src/v0.8/shared/access/ConfirmedOwnerWithProposal.sol\":481:763  constructor(address newOwner, address pendingOwner) {... */\n  pop\n  pop\n    /* \"@chainlink/contracts@1.2.0/src/v0.8/shared/access/ConfirmedOwner.sol\":298:379  constructor(address newOwner) ConfirmedOwnerWithProposal(newOwner, address(0)) {} */\n  pop\n    /* \"@chainlink/contracts@1.2.0/src/v0.8/vrf/dev/VRFConsumerBaseV2Plus.sol\":6303:6304  0 */\n  0x00\n    /* \"@chainlink/contracts@1.2.0/src/v0.8/vrf/dev/VRFConsumerBaseV2Plus.sol\":6276:6305  _vrfCoordinator == address(0) */\n  0xffffffffffffffffffffffffffffffffffffffff\n  and\n    /* \"@chainlink/contracts@1.2.0/src/v0.8/vrf/dev/VRFConsumerBaseV2Plus.sol\":6276:6291  _vrfCoordinator */\n  dup2\n    /* \"@chainlink/contracts@1.2.0/src/v0.8/vrf/dev/VRFConsumerBaseV2Plus.sol\":6276:6305  _vrfCoordinator == address(0) */\n  0xffffffffffffffffffffffffffffffffffffffff\n  and\n  sub\n    /* \"@chainlink/contracts@1.2.0/src/v0.8/vrf/dev/VRFConsumerBaseV2Plus.sol\":6272:6342  if (_vrfCoordinator == address(0)) {... */\n  tag_17\n  jumpi\n    /* \"@chainlink/contracts@1.2.0/src/v0.8/vrf/dev/VRFConsumerBaseV2Plus.sol\":6322:6335  ZeroAddress() */\n  mload(0x40)\n  0xd92e233d00000000000000000000000000000000000000000000000000000000\n  dup2\n  mstore\n  0x04\n  add\n  mload(0x40)\n  dup1\n  swap2\n  sub\n  swap1\n  revert\n    /* \"@chainlink/contracts@1.2.0/src/v0.8/vrf/dev/VRFConsumerBaseV2Plus.sol\":6272:6342  if (_vrfCoordinator == address(0)) {... */\ntag_17:\n    /* \"@chainlink/contracts@1.2.0/src/v0.8/vrf/dev/VRFConsumerBaseV2Plus.sol\":6388:6403  _vrfCoordinator */\n  dup1\n    /* \"@chainlink/contracts@1.2.0/src/v0.8/vrf/dev/VRFConsumerBaseV2Plus.sol\":6347:6363  s_vrfCoordinator */\n  0x02\n  0x00\n    /* \"@chainlink/contracts@1.2.0/src/v0.8/vrf/dev/VRFConsumerBaseV2Plus.sol\":6347:6404  s_vrfCoordinator = IVRFCoordinatorV2Plus(_vrfCoordinator) */\n  0x0100\n  exp\n  dup2\n  sload\n  dup2\n  0xffffffffffffffffffffffffffffffffffffffff\n  mul\n  not\n  and\n  swap1\n  dup4\n  0xffffffffffffffffffffffffffffffffffffffff\n  and\n  mul\n  or\n  swap1\n  sstore\n  pop\n    /* \"@chainlink/contracts@1.2.0/src/v0.8/vrf/dev/VRFConsumerBaseV2Plus.sol\":6202:6409  constructor(address _vrfCoordinator) ConfirmedOwner(msg.sender) {... */\n  pop\n    /* \"consumer/x.sol\":1347:1357  msg.sender */\n  caller\n    /* \"consumer/x.sol\":1337:1344  s_owner */\n  0x04\n  0x00\n    /* \"consumer/x.sol\":1337:1357  s_owner = msg.sender */\n  0x0100\n  exp\n  dup2\n  sload\n  dup2\n  0xffffffffffffffffffffffffffffffffffffffff\n  mul\n  not\n  and\n  swap1\n  dup4\n  0xffffffffffffffffffffffffffffffffffffffff\n  and\n  mul\n  or\n  swap1\n  sstore\n  pop\n    /* \"consumer/x.sol\":1387:1401  subscriptionId */\n  dup1\n    /* \"consumer/x.sol\":1368:1384  s_subscriptionId */\n  0x03\n    /* \"consumer/x.sol\":1368:1401  s_subscriptionId = subscriptionId */\n  dup2\n  swap1\n  sstore\n  pop\n    /* \"consumer/x.sol\":1244:1409  constructor(uint256 subscriptionId) VRFConsumerBaseV2Plus(vrfCoordinator) {... */\n  pop\n    /* \"consumer/x.sol\":442:2376  contract VrfGen is VRFConsumerBaseV2Plus {... */\n  jump(tag_19)\n    /* \"@chainlink/contracts@1.2.0/src/v0.8/shared/access/ConfirmedOwnerWithProposal.sol\":1536:1775  function _transferOwnership(address to) private {... */\ntag_14:\n    /* \"@chainlink/contracts@1.2.0/src/v0.8/shared/access/ConfirmedOwnerWithProposal.sol\":1655:1665  msg.sender */\n  caller\n    /* \"@chainlink/contracts@1.2.0/src/v0.8/shared/access/ConfirmedOwnerWithProposal.sol\":1649:1665  to != msg.sender */\n  0xffffffffffffffffffffffffffffffffffffffff\n  and\n    /* \"@chainlink/contracts@1.2.0/src/v0.8/shared/access/ConfirmedOwnerWithProposal.sol\":1649:1651  to */\n  dup2\n    /* \"@chainlink/contracts@1.2.0/src/v0.8/shared/access/ConfirmedOwnerWithProposal.sol\":1649:1665  to != msg.sender */\n  0xffffffffffffffffffffffffffffffffffffffff\n  and\n  sub\n    /* \"@chainlink/contracts@1.2.0/src/v0.8/shared/access/ConfirmedOwnerWithProposal.sol\":1641:1693  require(to != msg.sender, \"Cannot transfer to self\") */\n  tag_21\n  jumpi\n  mload(0x40)\n  0x08c379a000000000000000000000000000000000000000000000000000000000\n  dup2\n  mstore\n  0x04\n  add\n  tag_22\n  swap1\n  tag_23\n  jump\t// in\ntag_22:\n  mload(0x40)\n  dup1\n  swap2\n  sub\n  swap1\n  revert\ntag_21:\n    /* \"@chainlink/contracts@1.2.0/src/v0.8/shared/access/ConfirmedOwnerWithProposal.sol\":1717:1719  to */\n  dup1\n    /* \"@chainlink/contracts@1.2.0/src/v0.8/shared/access/ConfirmedOwnerWithProposal.sol\":1700:1714  s_pendingOwner */\n  0x01\n  0x00\n    /* \"@chainlink/contracts@1.2.0/src/v0.8/shared/access/ConfirmedOwnerWithProposal.sol\":1700:1719  s_pendingOwner = to */\n  0x0100\n  exp\n  dup2\n  sload\n  dup2\n  0xffffffffffffffffffffffffffffffffffffffff\n  mul\n  not\n  and\n  swap1\n  dup4\n  0xffffffffffffffffffffffffffffffffffffffff\n  and\n  mul\n  or\n  swap1\n  sstore\n  pop\n    /* \"@chainlink/contracts@1.2.0/src/v0.8/shared/access/ConfirmedOwnerWithProposal.sol\":1767:1769  to */\n  dup1\n    /* \"@chainlink/contracts@1.2.0/src/v0.8/shared/access/ConfirmedOwnerWithProposal.sol\":1731:1770  OwnershipTransferRequested(s_owner, to) */\n  0xffffffffffffffffffffffffffffffffffffffff\n  and\n    /* \"@chainlink/contracts@1.2.0/src/v0.8/shared/access/ConfirmedOwnerWithProposal.sol\":1758:1765  s_owner */\n  0x00\n  dup1\n  sload\n  swap1\n  0x0100\n  exp\n  swap1\n  div\n  0xffffffffffffffffffffffffffffffffffffffff\n  and\n    /* \"@chainlink/contracts@1.2.0/src/v0.8/shared/access/ConfirmedOwnerWithProposal.sol\":1731:1770  OwnershipTransferRequested(s_owner, to) */\n  0xffffffffffffffffffffffffffffffffffffffff\n  and\n  0xed8889f560326eb138920d842192f0eb3dd22b4f139c87a2c57538e05bae1278\n  mload(0x40)\n  mload(0x40)\n  dup1\n  swap2\n  sub\n  swap1\n  log3\n    /* \"@chainlink/contracts@1.2.0/src/v0.8/shared/access/ConfirmedOwnerWithProposal.sol\":1536:1775  function _transferOwnership(address to) private {... */\n  pop\n  jump\t// out\n    /* \"#utility.yul\":88:205   */\ntag_25:\n    /* \"#utility.yul\":197:198   */\n  0x00\n    /* \"#utility.yul\":194:195   */\n  dup1\n    /* \"#utility.yul\":187:199   */\n  revert\n    /* \"#utility.yul\":334:411   */\ntag_27:\n    /* \"#utility.yul\":371:378   */\n  0x00\n    /* \"#utility.yul\":400:405   */\n  dup2\n    /* \"#utility.yul\":389:405   */\n  swap1\n  pop\n    /* \"#utility.yul\":334:411   */\n  swap2\n  swap1\n  pop\n  jump\t// out\n    /* \"#utility.yul\":417:539   */\ntag_28:\n    /* \"#utility.yul\":490:514   */\n  tag_41\n    /* \"#utility.yul\":508:513   */\n  dup2\n    /* \"#utility.yul\":490:514   */\n  tag_27\n  jump\t// in\ntag_41:\n    /* \"#utility.yul\":483:488   */\n  dup2\n    /* \"#utility.yul\":480:515   */\n  eq\n    /* \"#utility.yul\":470:533   */\n  tag_42\n  jumpi\n    /* \"#utility.yul\":529:530   */\n  0x00\n    /* \"#utility.yul\":526:527   */\n  dup1\n    /* \"#utility.yul\":519:531   */\n  revert\n    /* \"#utility.yul\":470:533   */\ntag_42:\n    /* \"#utility.yul\":417:539   */\n  pop\n  jump\t// out\n    /* \"#utility.yul\":545:688   */\ntag_29:\n    /* \"#utility.yul\":602:607   */\n  0x00\n    /* \"#utility.yul\":633:639   */\n  dup2\n    /* \"#utility.yul\":627:640   */\n  mload\n    /* \"#utility.yul\":618:640   */\n  swap1\n  pop\n    /* \"#utility.yul\":649:682   */\n  tag_44\n    /* \"#utility.yul\":676:681   */\n  dup2\n    /* \"#utility.yul\":649:682   */\n  tag_28\n  jump\t// in\ntag_44:\n    /* \"#utility.yul\":545:688   */\n  swap3\n  swap2\n  pop\n  pop\n  jump\t// out\n    /* \"#utility.yul\":694:1045   */\ntag_3:\n    /* \"#utility.yul\":764:770   */\n  0x00\n    /* \"#utility.yul\":813:815   */\n  0x20\n    /* \"#utility.yul\":801:810   */\n  dup3\n    /* \"#utility.yul\":792:799   */\n  dup5\n    /* \"#utility.yul\":788:811   */\n  sub\n    /* \"#utility.yul\":784:816   */\n  slt\n    /* \"#utility.yul\":781:900   */\n  iszero\n  tag_46\n  jumpi\n    /* \"#utility.yul\":819:898   */\n  tag_47\n  tag_25\n  jump\t// in\ntag_47:\n    /* \"#utility.yul\":781:900   */\ntag_46:\n    /* \"#utility.yul\":939:940   */\n  0x00\n    /* \"#utility.yul\":964:1028   */\n  tag_48\n    /* \"#utility.yul\":1020:1027   */\n  dup5\n    /* \"#utility.yul\":1011:1017   */\n  dup3\n    /* \"#utility.yul\":1000:1009   */\n  dup6\n    /* \"#utility.yul\":996:1018   */\n  add\n    /* \"#utility.yul\":964:1028   */\n  tag_29\n  jump\t// in\ntag_48:\n    /* \"#utility.yul\":954:1028   */\n  swap2\n  pop\n    /* \"#utility.yul\":910:1038   */\n  pop\n    /* \"#utility.yul\":694:1045   */\n  swap3\n  swap2\n  pop\n  pop\n  jump\t// out\n    /* \"#utility.yul\":1051:1220   */\ntag_30:\n    /* \"#utility.yul\":1135:1146   */\n  0x00\n    /* \"#utility.yul\":1169:1175   */\n  dup3\n    /* \"#utility.yul\":1164:1167   */\n  dup3\n    /* \"#utility.yul\":1157:1176   */\n  mstore\n    /* \"#utility.yul\":1209:1213   */\n  0x20\n    /* \"#utility.yul\":1204:1207   */\n  dup3\n    /* \"#utility.yul\":1200:1214   */\n  add\n    /* \"#utility.yul\":1185:1214   */\n  swap1\n  pop\n    /* \"#utility.yul\":1051:1220   */\n  swap3\n  swap2\n  pop\n  pop\n  jump\t// out\n    /* \"#utility.yul\":1226:1400   */\ntag_31:\n    /* \"#utility.yul\":1366:1392   */\n  0x43616e6e6f7420736574206f776e657220746f207a65726f0000000000000000\n    /* \"#utility.yul\":1362:1363   */\n  0x00\n    /* \"#utility.yul\":1354:1360   */\n  dup3\n    /* \"#utility.yul\":1350:1364   */\n  add\n    /* \"#utility.yul\":1343:1393   */\n  mstore\n    /* \"#utility.yul\":1226:1400   */\n  pop\n  jump\t// out\n    /* \"#utility.yul\":1406:1772   */\ntag_32:\n    /* \"#utility.yul\":1548:1551   */\n  0x00\n    /* \"#utility.yul\":1569:1636   */\n  tag_52\n    /* \"#utility.yul\":1633:1635   */\n  0x18\n    /* \"#utility.yul\":1628:1631   */\n  dup4\n    /* \"#utility.yul\":1569:1636   */\n  tag_30\n  jump\t// in\ntag_52:\n    /* \"#utility.yul\":1562:1636   */\n  swap2\n  pop\n    /* \"#utility.yul\":1645:1738   */\n  tag_53\n    /* \"#utility.yul\":1734:1737   */\n  dup3\n    /* \"#utility.yul\":1645:1738   */\n  tag_31\n  jump\t// in\ntag_53:\n    /* \"#utility.yul\":1763:1765   */\n  0x20\n    /* \"#utility.yul\":1758:1761   */\n  dup3\n    /* \"#utility.yul\":1754:1766   */\n  add\n    /* \"#utility.yul\":1747:1766   */\n  swap1\n  pop\n    /* \"#utility.yul\":1406:1772   */\n  swap2\n  swap1\n  pop\n  jump\t// out\n    /* \"#utility.yul\":1778:2197   */\ntag_11:\n    /* \"#utility.yul\":1944:1948   */\n  0x00\n    /* \"#utility.yul\":1982:1984   */\n  0x20\n    /* \"#utility.yul\":1971:1980   */\n  dup3\n    /* \"#utility.yul\":1967:1985   */\n  add\n    /* \"#utility.yul\":1959:1985   */\n  swap1\n  pop\n    /* \"#utility.yul\":2031:2040   */\n  dup2\n    /* \"#utility.yul\":2025:2029   */\n  dup2\n    /* \"#utility.yul\":2021:2041   */\n  sub\n    /* \"#utility.yul\":2017:2018   */\n  0x00\n    /* \"#utility.yul\":2006:2015   */\n  dup4\n    /* \"#utility.yul\":2002:2019   */\n  add\n    /* \"#utility.yul\":1995:2042   */\n  mstore\n    /* \"#utility.yul\":2059:2190   */\n  tag_55\n    /* \"#utility.yul\":2185:2189   */\n  dup2\n    /* \"#utility.yul\":2059:2190   */\n  tag_32\n  jump\t// in\ntag_55:\n    /* \"#utility.yul\":2051:2190   */\n  swap1\n  pop\n    /* \"#utility.yul\":1778:2197   */\n  swap2\n  swap1\n  pop\n  jump\t// out\n    /* \"#utility.yul\":2203:2376   */\ntag_33:\n    /* \"#utility.yul\":2343:2368   */\n  0x43616e6e6f74207472616e7366657220746f2073656c66000000000000000000\n    /* \"#utility.yul\":2339:2340   */\n  0x00\n    /* \"#utility.yul\":2331:2337   */\n  dup3\n    /* \"#utility.yul\":2327:2341   */\n  add\n    /* \"#utility.yul\":2320:2369   */\n  mstore\n    /* \"#utility.yul\":2203:2376   */\n  pop\n  jump\t// out\n    /* \"#utility.yul\":2382:2748   */\ntag_34:\n    /* \"#utility.yul\":2524:2527   */\n  0x00\n    /* \"#utility.yul\":2545:2612   */\n  tag_58\n    /* \"#utility.yul\":2609:2611   */\n  0x17\n    /* \"#utility.yul\":2604:2607   */\n  dup4\n    /* \"#utility.yul\":2545:2612   */\n  tag_30\n  jump\t// in\ntag_58:\n    /* \"#utility.yul\":2538:2612   */\n  swap2\n  pop\n    /* \"#utility.yul\":2621:2714   */\n  tag_59\n    /* \"#utility.yul\":2710:2713   */\n  dup3\n    /* \"#utility.yul\":2621:2714   */\n  tag_33\n  jump\t// in\ntag_59:\n    /* \"#utility.yul\":2739:2741   */\n  0x20\n    /* \"#utility.yul\":2734:2737   */\n  dup3\n    /* \"#utility.yul\":2730:2742   */\n  add\n    /* \"#utility.yul\":2723:2742   */\n  swap1\n  pop\n    /* \"#utility.yul\":2382:2748   */\n  swap2\n  swap1\n  pop\n  jump\t// out\n    /* \"#utility.yul\":2754:3173   */\ntag_23:\n    /* \"#utility.yul\":2920:2924   */\n  0x00\n    /* \"#utility.yul\":2958:2960   */\n  0x20\n    /* \"#utility.yul\":2947:2956   */\n  dup3\n    /* \"#utility.yul\":2943:2961   */\n  add\n    /* \"#utility.yul\":2935:2961   */\n  swap1\n  pop\n    /* \"#utility.yul\":3007:3016   */\n  dup2\n    /* \"#utility.yul\":3001:3005   */\n  dup2\n    /* \"#utility.yul\":2997:3017   */\n  sub\n    /* \"#utility.yul\":2993:2994   */\n  0x00\n    /* \"#utility.yul\":2982:2991   */\n  dup4\n    /* \"#utility.yul\":2978:2995   */\n  add\n    /* \"#utility.yul\":2971:3018   */\n  mstore\n    /* \"#utility.yul\":3035:3166   */\n  tag_61\n    /* \"#utility.yul\":3161:3165   */\n  dup2\n    /* \"#utility.yul\":3035:3166   */\n  tag_34\n  jump\t// in\ntag_61:\n    /* \"#utility.yul\":3027:3166   */\n  swap1\n  pop\n    /* \"#utility.yul\":2754:3173   */\n  swap2\n  swap1\n  pop\n  jump\t// out\n    /* \"consumer/x.sol\":442:2376  contract VrfGen is VRFConsumerBaseV2Plus {... */\ntag_19:\n  dataSize(sub_0)\n  dup1\n  dataOffset(sub_0)\n  0x00\n  codecopy\n  0x00\n  return\nstop\n\nsub_0: assembly {\n        /* \"consumer/x.sol\":442:2376  contract VrfGen is VRFConsumerBaseV2Plus {... */\n      mstore(0x40, 0x80)\n      callvalue\n      dup1\n      iszero\n      tag_1\n      jumpi\n      0x00\n      dup1\n      revert\n    tag_1:\n      pop\n      jumpi(tag_2, lt(calldatasize, 0x04))\n      shr(0xe0, calldataload(0x00))\n      dup1\n      0x8ea98117\n      gt\n      tag_10\n      jumpi\n      dup1\n      0x8ea98117\n      eq\n      tag_6\n      jumpi\n      dup1\n      0x99805d56\n      eq\n      tag_7\n      jumpi\n      dup1\n      0x9eccacf6\n      eq\n      tag_8\n      jumpi\n      dup1\n      0xf2fde38b\n      eq\n      tag_9\n      jumpi\n      jump(tag_2)\n    tag_10:\n      dup1\n      0x1fe543e3\n      eq\n      tag_3\n      jumpi\n      dup1\n      0x79ba5097\n      eq\n      tag_4\n      jumpi\n      dup1\n      0x8da5cb5b\n      eq\n      tag_5\n      jumpi\n    tag_2:\n      0x00\n      dup1\n      revert\n        /* \"@chainlink/contracts@1.2.0/src/v0.8/vrf/dev/VRFConsumerBaseV2Plus.sol\":7489:7769  function rawFulfillRandomWords(uint256 requestId, uint256[] calldata randomWords) external {... */\n    tag_3:\n      tag_11\n      0x04\n      dup1\n      calldatasize\n      sub\n      dup2\n      add\n      swap1\n      tag_12\n      swap2\n      swap1\n      tag_13\n      jump\t// in\n    tag_12:\n      tag_14\n      jump\t// in\n    tag_11:\n      stop\n        /* \"@chainlink/contracts@1.2.0/src/v0.8/shared/access/ConfirmedOwnerWithProposal.sol\":1026:1342  function acceptOwnership() external override {... */\n    tag_4:\n      tag_15\n      tag_16\n      jump\t// in\n    tag_15:\n      stop\n        /* \"@chainlink/contracts@1.2.0/src/v0.8/shared/access/ConfirmedOwnerWithProposal.sol\":1382:1463  function owner() public view override returns (address) {... */\n    tag_5:\n      tag_17\n      tag_18\n      jump\t// in\n    tag_17:\n      mload(0x40)\n      tag_19\n      swap2\n      swap1\n      tag_20\n      jump\t// in\n    tag_19:\n      mload(0x40)\n      dup1\n      swap2\n      sub\n      swap1\n      return\n        /* \"@chainlink/contracts@1.2.0/src/v0.8/vrf/dev/VRFConsumerBaseV2Plus.sol\":7831:8107  function setCoordinator(address _vrfCoordinator) external override onlyOwnerOrCoordinator {... */\n    tag_6:\n      tag_21\n      0x04\n      dup1\n      calldatasize\n      sub\n      dup2\n      add\n      swap1\n      tag_22\n      swap2\n      swap1\n      tag_23\n      jump\t// in\n    tag_22:\n      tag_24\n      jump\t// in\n    tag_21:\n      stop\n        /* \"consumer/x.sol\":1541:2249  function randomReq(bool enableNativePayment) external onlyOwner returns (uint256){... */\n    tag_7:\n      tag_25\n      0x04\n      dup1\n      calldatasize\n      sub\n      dup2\n      add\n      swap1\n      tag_26\n      swap2\n      swap1\n      tag_27\n      jump\t// in\n    tag_26:\n      tag_28\n      jump\t// in\n    tag_25:\n      mload(0x40)\n      tag_29\n      swap2\n      swap1\n      tag_30\n      jump\t// in\n    tag_29:\n      mload(0x40)\n      dup1\n      swap2\n      sub\n      swap1\n      return\n        /* \"@chainlink/contracts@1.2.0/src/v0.8/vrf/dev/VRFConsumerBaseV2Plus.sol\":6077:6122  IVRFCoordinatorV2Plus public s_vrfCoordinator */\n    tag_8:\n      tag_31\n      tag_32\n      jump\t// in\n    tag_31:\n      mload(0x40)\n      tag_33\n      swap2\n      swap1\n      tag_34\n      jump\t// in\n    tag_33:\n      mload(0x40)\n      dup1\n      swap2\n      sub\n      swap1\n      return\n        /* \"@chainlink/contracts@1.2.0/src/v0.8/shared/access/ConfirmedOwnerWithProposal.sol\":847:945  function transferOwnership(address to) public override onlyOwner {... */\n    tag_9:\n      tag_35\n      0x04\n      dup1\n      calldatasize\n      sub\n      dup2\n      add\n      swap1\n      tag_36\n      swap2\n      swap1\n      tag_23\n      jump\t// in\n    tag_36:\n      tag_37\n      jump\t// in\n    tag_35:\n      stop\n        /* \"@chainlink/contracts@1.2.0/src/v0.8/vrf/dev/VRFConsumerBaseV2Plus.sol\":7489:7769  function rawFulfillRandomWords(uint256 requestId, uint256[] calldata randomWords) external {... */\n    tag_14:\n        /* \"@chainlink/contracts@1.2.0/src/v0.8/vrf/dev/VRFConsumerBaseV2Plus.sol\":7612:7628  s_vrfCoordinator */\n      0x02\n      0x00\n      swap1\n      sload\n      swap1\n      0x0100\n      exp\n      swap1\n      div\n      0xffffffffffffffffffffffffffffffffffffffff\n      and\n        /* \"@chainlink/contracts@1.2.0/src/v0.8/vrf/dev/VRFConsumerBaseV2Plus.sol\":7590:7629  msg.sender != address(s_vrfCoordinator) */\n      0xffffffffffffffffffffffffffffffffffffffff\n      and\n        /* \"@chainlink/contracts@1.2.0/src/v0.8/vrf/dev/VRFConsumerBaseV2Plus.sol\":7590:7600  msg.sender */\n      caller\n        /* \"@chainlink/contracts@1.2.0/src/v0.8/vrf/dev/VRFConsumerBaseV2Plus.sol\":7590:7629  msg.sender != address(s_vrfCoordinator) */\n      0xffffffffffffffffffffffffffffffffffffffff\n      and\n      eq\n        /* \"@chainlink/contracts@1.2.0/src/v0.8/vrf/dev/VRFConsumerBaseV2Plus.sol\":7586:7717  if (msg.sender != address(s_vrfCoordinator)) {... */\n      tag_39\n      jumpi\n        /* \"@chainlink/contracts@1.2.0/src/v0.8/vrf/dev/VRFConsumerBaseV2Plus.sol\":7672:7682  msg.sender */\n      caller\n        /* \"@chainlink/contracts@1.2.0/src/v0.8/vrf/dev/VRFConsumerBaseV2Plus.sol\":7692:7708  s_vrfCoordinator */\n      0x02\n      0x00\n      swap1\n      sload\n      swap1\n      0x0100\n      exp\n      swap1\n      div\n      0xffffffffffffffffffffffffffffffffffffffff\n      and\n        /* \"@chainlink/contracts@1.2.0/src/v0.8/vrf/dev/VRFConsumerBaseV2Plus.sol\":7646:7710  OnlyCoordinatorCanFulfill(msg.sender, address(s_vrfCoordinator)) */\n      mload(0x40)\n      0x1cf993f400000000000000000000000000000000000000000000000000000000\n      dup2\n      mstore\n      0x04\n      add\n      tag_40\n      swap3\n      swap2\n      swap1\n      tag_41\n      jump\t// in\n    tag_40:\n      mload(0x40)\n      dup1\n      swap2\n      sub\n      swap1\n      revert\n        /* \"@chainlink/contracts@1.2.0/src/v0.8/vrf/dev/VRFConsumerBaseV2Plus.sol\":7586:7717  if (msg.sender != address(s_vrfCoordinator)) {... */\n    tag_39:\n        /* \"@chainlink/contracts@1.2.0/src/v0.8/vrf/dev/VRFConsumerBaseV2Plus.sol\":7722:7764  fulfillRandomWords(requestId, randomWords) */\n      tag_42\n        /* \"@chainlink/contracts@1.2.0/src/v0.8/vrf/dev/VRFConsumerBaseV2Plus.sol\":7741:7750  requestId */\n      dup4\n        /* \"@chainlink/contracts@1.2.0/src/v0.8/vrf/dev/VRFConsumerBaseV2Plus.sol\":7752:7763  randomWords */\n      dup4\n      dup4\n        /* \"@chainlink/contracts@1.2.0/src/v0.8/vrf/dev/VRFConsumerBaseV2Plus.sol\":7722:7740  fulfillRandomWords */\n      tag_43\n        /* \"@chainlink/contracts@1.2.0/src/v0.8/vrf/dev/VRFConsumerBaseV2Plus.sol\":7722:7764  fulfillRandomWords(requestId, randomWords) */\n      jump\t// in\n    tag_42:\n        /* \"@chainlink/contracts@1.2.0/src/v0.8/vrf/dev/VRFConsumerBaseV2Plus.sol\":7489:7769  function rawFulfillRandomWords(uint256 requestId, uint256[] calldata randomWords) external {... */\n      pop\n      pop\n      pop\n      jump\t// out\n        /* \"@chainlink/contracts@1.2.0/src/v0.8/shared/access/ConfirmedOwnerWithProposal.sol\":1026:1342  function acceptOwnership() external override {... */\n    tag_16:\n        /* \"@chainlink/contracts@1.2.0/src/v0.8/shared/access/ConfirmedOwnerWithProposal.sol\":1150:1164  s_pendingOwner */\n      0x01\n      0x00\n      swap1\n      sload\n      swap1\n      0x0100\n      exp\n      swap1\n      div\n      0xffffffffffffffffffffffffffffffffffffffff\n      and\n        /* \"@chainlink/contracts@1.2.0/src/v0.8/shared/access/ConfirmedOwnerWithProposal.sol\":1136:1164  msg.sender == s_pendingOwner */\n      0xffffffffffffffffffffffffffffffffffffffff\n      and\n        /* \"@chainlink/contracts@1.2.0/src/v0.8/shared/access/ConfirmedOwnerWithProposal.sol\":1136:1146  msg.sender */\n      caller\n        /* \"@chainlink/contracts@1.2.0/src/v0.8/shared/access/ConfirmedOwnerWithProposal.sol\":1136:1164  msg.sender == s_pendingOwner */\n      0xffffffffffffffffffffffffffffffffffffffff\n      and\n      eq\n        /* \"@chainlink/contracts@1.2.0/src/v0.8/shared/access/ConfirmedOwnerWithProposal.sol\":1128:1191  require(msg.sender == s_pendingOwner, \"Must be proposed owner\") */\n      tag_45\n      jumpi\n      mload(0x40)\n      0x08c379a000000000000000000000000000000000000000000000000000000000\n      dup2\n      mstore\n      0x04\n      add\n      tag_46\n      swap1\n      tag_47\n      jump\t// in\n    tag_46:\n      mload(0x40)\n      dup1\n      swap2\n      sub\n      swap1\n      revert\n    tag_45:\n        /* \"@chainlink/contracts@1.2.0/src/v0.8/shared/access/ConfirmedOwnerWithProposal.sol\":1198:1214  address oldOwner */\n      0x00\n        /* \"@chainlink/contracts@1.2.0/src/v0.8/shared/access/ConfirmedOwnerWithProposal.sol\":1217:1224  s_owner */\n      dup1\n      0x00\n      swap1\n      sload\n      swap1\n      0x0100\n      exp\n      swap1\n      div\n      0xffffffffffffffffffffffffffffffffffffffff\n      and\n        /* \"@chainlink/contracts@1.2.0/src/v0.8/shared/access/ConfirmedOwnerWithProposal.sol\":1198:1224  address oldOwner = s_owner */\n      swap1\n      pop\n        /* \"@chainlink/contracts@1.2.0/src/v0.8/shared/access/ConfirmedOwnerWithProposal.sol\":1240:1250  msg.sender */\n      caller\n        /* \"@chainlink/contracts@1.2.0/src/v0.8/shared/access/ConfirmedOwnerWithProposal.sol\":1230:1237  s_owner */\n      0x00\n      dup1\n        /* \"@chainlink/contracts@1.2.0/src/v0.8/shared/access/ConfirmedOwnerWithProposal.sol\":1230:1250  s_owner = msg.sender */\n      0x0100\n      exp\n      dup2\n      sload\n      dup2\n      0xffffffffffffffffffffffffffffffffffffffff\n      mul\n      not\n      and\n      swap1\n      dup4\n      0xffffffffffffffffffffffffffffffffffffffff\n      and\n      mul\n      or\n      swap1\n      sstore\n      pop\n        /* \"@chainlink/contracts@1.2.0/src/v0.8/shared/access/ConfirmedOwnerWithProposal.sol\":1281:1282  0 */\n      0x00\n        /* \"@chainlink/contracts@1.2.0/src/v0.8/shared/access/ConfirmedOwnerWithProposal.sol\":1256:1270  s_pendingOwner */\n      0x01\n      0x00\n        /* \"@chainlink/contracts@1.2.0/src/v0.8/shared/access/ConfirmedOwnerWithProposal.sol\":1256:1283  s_pendingOwner = address(0) */\n      0x0100\n      exp\n      dup2\n      sload\n      dup2\n      0xffffffffffffffffffffffffffffffffffffffff\n      mul\n      not\n      and\n      swap1\n      dup4\n      0xffffffffffffffffffffffffffffffffffffffff\n      and\n      mul\n      or\n      swap1\n      sstore\n      pop\n        /* \"@chainlink/contracts@1.2.0/src/v0.8/shared/access/ConfirmedOwnerWithProposal.sol\":1326:1336  msg.sender */\n      caller\n        /* \"@chainlink/contracts@1.2.0/src/v0.8/shared/access/ConfirmedOwnerWithProposal.sol\":1295:1337  OwnershipTransferred(oldOwner, msg.sender) */\n      0xffffffffffffffffffffffffffffffffffffffff\n      and\n        /* \"@chainlink/contracts@1.2.0/src/v0.8/shared/access/ConfirmedOwnerWithProposal.sol\":1316:1324  oldOwner */\n      dup2\n        /* \"@chainlink/contracts@1.2.0/src/v0.8/shared/access/ConfirmedOwnerWithProposal.sol\":1295:1337  OwnershipTransferred(oldOwner, msg.sender) */\n      0xffffffffffffffffffffffffffffffffffffffff\n      and\n      0x8be0079c531659141344cd1fd0a4f28419497f9722a3daafe3b4186f6b6457e0\n      mload(0x40)\n      mload(0x40)\n      dup1\n      swap2\n      sub\n      swap1\n      log3\n        /* \"@chainlink/contracts@1.2.0/src/v0.8/shared/access/ConfirmedOwnerWithProposal.sol\":1071:1342  {... */\n      pop\n        /* \"@chainlink/contracts@1.2.0/src/v0.8/shared/access/ConfirmedOwnerWithProposal.sol\":1026:1342  function acceptOwnership() external override {... */\n      jump\t// out\n        /* \"@chainlink/contracts@1.2.0/src/v0.8/shared/access/ConfirmedOwnerWithProposal.sol\":1382:1463  function owner() public view override returns (address) {... */\n    tag_18:\n        /* \"@chainlink/contracts@1.2.0/src/v0.8/shared/access/ConfirmedOwnerWithProposal.sol\":1429:1436  address */\n      0x00\n        /* \"@chainlink/contracts@1.2.0/src/v0.8/shared/access/ConfirmedOwnerWithProposal.sol\":1451:1458  s_owner */\n      dup1\n      0x00\n      swap1\n      sload\n      swap1\n      0x0100\n      exp\n      swap1\n      div\n      0xffffffffffffffffffffffffffffffffffffffff\n      and\n        /* \"@chainlink/contracts@1.2.0/src/v0.8/shared/access/ConfirmedOwnerWithProposal.sol\":1444:1458  return s_owner */\n      swap1\n      pop\n        /* \"@chainlink/contracts@1.2.0/src/v0.8/shared/access/ConfirmedOwnerWithProposal.sol\":1382:1463  function owner() public view override returns (address) {... */\n      swap1\n      jump\t// out\n        /* \"@chainlink/contracts@1.2.0/src/v0.8/vrf/dev/VRFConsumerBaseV2Plus.sol\":7831:8107  function setCoordinator(address _vrfCoordinator) external override onlyOwnerOrCoordinator {... */\n    tag_24:\n        /* \"@chainlink/contracts@1.2.0/src/v0.8/vrf/dev/VRFConsumerBaseV2Plus.sol\":8169:8176  owner() */\n      tag_50\n        /* \"@chainlink/contracts@1.2.0/src/v0.8/vrf/dev/VRFConsumerBaseV2Plus.sol\":8169:8174  owner */\n      tag_18\n        /* \"@chainlink/contracts@1.2.0/src/v0.8/vrf/dev/VRFConsumerBaseV2Plus.sol\":8169:8176  owner() */\n      jump\t// in\n    tag_50:\n        /* \"@chainlink/contracts@1.2.0/src/v0.8/vrf/dev/VRFConsumerBaseV2Plus.sol\":8155:8176  msg.sender != owner() */\n      0xffffffffffffffffffffffffffffffffffffffff\n      and\n        /* \"@chainlink/contracts@1.2.0/src/v0.8/vrf/dev/VRFConsumerBaseV2Plus.sol\":8155:8165  msg.sender */\n      caller\n        /* \"@chainlink/contracts@1.2.0/src/v0.8/vrf/dev/VRFConsumerBaseV2Plus.sol\":8155:8176  msg.sender != owner() */\n      0xffffffffffffffffffffffffffffffffffffffff\n      and\n      eq\n      iszero\n        /* \"@chainlink/contracts@1.2.0/src/v0.8/vrf/dev/VRFConsumerBaseV2Plus.sol\":8155:8219  msg.sender != owner() && msg.sender != address(s_vrfCoordinator) */\n      dup1\n      iszero\n      tag_51\n      jumpi\n      pop\n        /* \"@chainlink/contracts@1.2.0/src/v0.8/vrf/dev/VRFConsumerBaseV2Plus.sol\":8202:8218  s_vrfCoordinator */\n      0x02\n      0x00\n      swap1\n      sload\n      swap1\n      0x0100\n      exp\n      swap1\n      div\n      0xffffffffffffffffffffffffffffffffffffffff\n      and\n        /* \"@chainlink/contracts@1.2.0/src/v0.8/vrf/dev/VRFConsumerBaseV2Plus.sol\":8180:8219  msg.sender != address(s_vrfCoordinator) */\n      0xffffffffffffffffffffffffffffffffffffffff\n      and\n        /* \"@chainlink/contracts@1.2.0/src/v0.8/vrf/dev/VRFConsumerBaseV2Plus.sol\":8180:8190  msg.sender */\n      caller\n        /* \"@chainlink/contracts@1.2.0/src/v0.8/vrf/dev/VRFConsumerBaseV2Plus.sol\":8180:8219  msg.sender != address(s_vrfCoordinator) */\n      0xffffffffffffffffffffffffffffffffffffffff\n      and\n      eq\n      iszero\n        /* \"@chainlink/contracts@1.2.0/src/v0.8/vrf/dev/VRFConsumerBaseV2Plus.sol\":8155:8219  msg.sender != owner() && msg.sender != address(s_vrfCoordinator) */\n    tag_51:\n        /* \"@chainlink/contracts@1.2.0/src/v0.8/vrf/dev/VRFConsumerBaseV2Plus.sol\":8151:8313  if (msg.sender != owner() && msg.sender != address(s_vrfCoordinator)) {... */\n      iszero\n      tag_52\n      jumpi\n        /* \"@chainlink/contracts@1.2.0/src/v0.8/vrf/dev/VRFConsumerBaseV2Plus.sol\":8259:8269  msg.sender */\n      caller\n        /* \"@chainlink/contracts@1.2.0/src/v0.8/vrf/dev/VRFConsumerBaseV2Plus.sol\":8271:8278  owner() */\n      tag_53\n        /* \"@chainlink/contracts@1.2.0/src/v0.8/vrf/dev/VRFConsumerBaseV2Plus.sol\":8271:8276  owner */\n      tag_18\n        /* \"@chainlink/contracts@1.2.0/src/v0.8/vrf/dev/VRFConsumerBaseV2Plus.sol\":8271:8278  owner() */\n      jump\t// in\n    tag_53:\n        /* \"@chainlink/contracts@1.2.0/src/v0.8/vrf/dev/VRFConsumerBaseV2Plus.sol\":8288:8304  s_vrfCoordinator */\n      0x02\n      0x00\n      swap1\n      sload\n      swap1\n      0x0100\n      exp\n      swap1\n      div\n      0xffffffffffffffffffffffffffffffffffffffff\n      and\n        /* \"@chainlink/contracts@1.2.0/src/v0.8/vrf/dev/VRFConsumerBaseV2Plus.sol\":8236:8306  OnlyOwnerOrCoordinator(msg.sender, owner(), address(s_vrfCoordinator)) */\n      mload(0x40)\n      0x061db9c100000000000000000000000000000000000000000000000000000000\n      dup2\n      mstore\n      0x04\n      add\n      tag_54\n      swap4\n      swap3\n      swap2\n      swap1\n      tag_55\n      jump\t// in\n    tag_54:\n      mload(0x40)\n      dup1\n      swap2\n      sub\n      swap1\n      revert\n        /* \"@chainlink/contracts@1.2.0/src/v0.8/vrf/dev/VRFConsumerBaseV2Plus.sol\":8151:8313  if (msg.sender != owner() && msg.sender != address(s_vrfCoordinator)) {... */\n    tag_52:\n        /* \"@chainlink/contracts@1.2.0/src/v0.8/vrf/dev/VRFConsumerBaseV2Plus.sol\":7958:7959  0 */\n      0x00\n        /* \"@chainlink/contracts@1.2.0/src/v0.8/vrf/dev/VRFConsumerBaseV2Plus.sol\":7931:7960  _vrfCoordinator == address(0) */\n      0xffffffffffffffffffffffffffffffffffffffff\n      and\n        /* \"@chainlink/contracts@1.2.0/src/v0.8/vrf/dev/VRFConsumerBaseV2Plus.sol\":7931:7946  _vrfCoordinator */\n      dup2\n        /* \"@chainlink/contracts@1.2.0/src/v0.8/vrf/dev/VRFConsumerBaseV2Plus.sol\":7931:7960  _vrfCoordinator == address(0) */\n      0xffffffffffffffffffffffffffffffffffffffff\n      and\n      sub\n        /* \"@chainlink/contracts@1.2.0/src/v0.8/vrf/dev/VRFConsumerBaseV2Plus.sol\":7927:7997  if (_vrfCoordinator == address(0)) {... */\n      tag_57\n      jumpi\n        /* \"@chainlink/contracts@1.2.0/src/v0.8/vrf/dev/VRFConsumerBaseV2Plus.sol\":7977:7990  ZeroAddress() */\n      mload(0x40)\n      0xd92e233d00000000000000000000000000000000000000000000000000000000\n      dup2\n      mstore\n      0x04\n      add\n      mload(0x40)\n      dup1\n      swap2\n      sub\n      swap1\n      revert\n        /* \"@chainlink/contracts@1.2.0/src/v0.8/vrf/dev/VRFConsumerBaseV2Plus.sol\":7927:7997  if (_vrfCoordinator == address(0)) {... */\n    tag_57:\n        /* \"@chainlink/contracts@1.2.0/src/v0.8/vrf/dev/VRFConsumerBaseV2Plus.sol\":8043:8058  _vrfCoordinator */\n      dup1\n        /* \"@chainlink/contracts@1.2.0/src/v0.8/vrf/dev/VRFConsumerBaseV2Plus.sol\":8002:8018  s_vrfCoordinator */\n      0x02\n      0x00\n        /* \"@chainlink/contracts@1.2.0/src/v0.8/vrf/dev/VRFConsumerBaseV2Plus.sol\":8002:8059  s_vrfCoordinator = IVRFCoordinatorV2Plus(_vrfCoordinator) */\n      0x0100\n      exp\n      dup2\n      sload\n      dup2\n      0xffffffffffffffffffffffffffffffffffffffff\n      mul\n      not\n      and\n      swap1\n      dup4\n      0xffffffffffffffffffffffffffffffffffffffff\n      and\n      mul\n      or\n      swap1\n      sstore\n      pop\n        /* \"@chainlink/contracts@1.2.0/src/v0.8/vrf/dev/VRFConsumerBaseV2Plus.sol\":8071:8102  CoordinatorSet(_vrfCoordinator) */\n      0xd1a6a14209a385a964d036e404cb5cfb71f4000cdb03c9366292430787261be6\n        /* \"@chainlink/contracts@1.2.0/src/v0.8/vrf/dev/VRFConsumerBaseV2Plus.sol\":8086:8101  _vrfCoordinator */\n      dup2\n        /* \"@chainlink/contracts@1.2.0/src/v0.8/vrf/dev/VRFConsumerBaseV2Plus.sol\":8071:8102  CoordinatorSet(_vrfCoordinator) */\n      mload(0x40)\n      tag_58\n      swap2\n      swap1\n      tag_20\n      jump\t// in\n    tag_58:\n      mload(0x40)\n      dup1\n      swap2\n      sub\n      swap1\n      log1\n        /* \"@chainlink/contracts@1.2.0/src/v0.8/vrf/dev/VRFConsumerBaseV2Plus.sol\":7831:8107  function setCoordinator(address _vrfCoordinator) external override onlyOwnerOrCoordinator {... */\n      pop\n      jump\t// out\n        /* \"consumer/x.sol\":1541:2249  function randomReq(bool enableNativePayment) external onlyOwner returns (uint256){... */\n    tag_28:\n        /* \"consumer/x.sol\":1614:1621  uint256 */\n      0x00\n        /* \"@chainlink/contracts@1.2.0/src/v0.8/shared/access/ConfirmedOwnerWithProposal.sol\":2075:2095  _validateOwnership() */\n      tag_60\n        /* \"@chainlink/contracts@1.2.0/src/v0.8/shared/access/ConfirmedOwnerWithProposal.sol\":2075:2093  _validateOwnership */\n      tag_61\n        /* \"@chainlink/contracts@1.2.0/src/v0.8/shared/access/ConfirmedOwnerWithProposal.sol\":2075:2095  _validateOwnership() */\n      jump\t// in\n    tag_60:\n        /* \"consumer/x.sol\":1630:1647  uint256 requestId */\n      0x00\n        /* \"consumer/x.sol\":1650:1666  s_vrfCoordinator */\n      0x02\n      0x00\n      swap1\n      sload\n      swap1\n      0x0100\n      exp\n      swap1\n      div\n      0xffffffffffffffffffffffffffffffffffffffff\n      and\n        /* \"consumer/x.sol\":1650:1685  s_vrfCoordinator.requestRandomWords */\n      0xffffffffffffffffffffffffffffffffffffffff\n      and\n      0x9b1c385e\n        /* \"consumer/x.sol\":1696:2163  VRFV2PlusClient.RandomWordsRequest({... */\n      mload(0x40)\n      dup1\n      0xc0\n      add\n      0x40\n      mstore\n      dup1\n        /* \"consumer/x.sol\":1755:1764  s_keyHash */\n      sload(0x06)\n        /* \"consumer/x.sol\":1696:2163  VRFV2PlusClient.RandomWordsRequest({... */\n      dup2\n      mstore\n      0x20\n      add\n        /* \"consumer/x.sol\":1786:1802  s_subscriptionId */\n      sload(0x03)\n        /* \"consumer/x.sol\":1696:2163  VRFV2PlusClient.RandomWordsRequest({... */\n      dup2\n      mstore\n      0x20\n      add\n        /* \"consumer/x.sol\":1839:1859  requestConfirmations */\n      0x07\n      0x04\n      swap1\n      sload\n      swap1\n      0x0100\n      exp\n      swap1\n      div\n      0xffff\n      and\n        /* \"consumer/x.sol\":1696:2163  VRFV2PlusClient.RandomWordsRequest({... */\n      0xffff\n      and\n      dup2\n      mstore\n      0x20\n      add\n        /* \"consumer/x.sol\":1892:1908  callbackGasLimit */\n      0x07\n      0x00\n      swap1\n      sload\n      swap1\n      0x0100\n      exp\n      swap1\n      div\n      0xffffffff\n      and\n        /* \"consumer/x.sol\":1696:2163  VRFV2PlusClient.RandomWordsRequest({... */\n      0xffffffff\n      and\n      dup2\n      mstore\n      0x20\n      add\n        /* \"consumer/x.sol\":1933:1941  numWords */\n      0x07\n      0x06\n      swap1\n      sload\n      swap1\n      0x0100\n      exp\n      swap1\n      div\n      0xffffffff\n      and\n        /* \"consumer/x.sol\":1696:2163  VRFV2PlusClient.RandomWordsRequest({... */\n      0xffffffff\n      and\n      dup2\n      mstore\n      0x20\n      add\n        /* \"consumer/x.sol\":1968:2151  VRFV2PlusClient._argsToBytes(... */\n      tag_63\n        /* \"consumer/x.sol\":2019:2132  VRFV2PlusClient.ExtraArgsV1({... */\n      mload(0x40)\n      dup1\n      0x20\n      add\n      0x40\n      mstore\n      dup1\n        /* \"consumer/x.sol\":2089:2108  enableNativePayment */\n      dup10\n        /* \"consumer/x.sol\":2019:2132  VRFV2PlusClient.ExtraArgsV1({... */\n      iszero\n      iszero\n      dup2\n      mstore\n      pop\n        /* \"consumer/x.sol\":1968:1996  VRFV2PlusClient._argsToBytes */\n      tag_64\n        /* \"consumer/x.sol\":1968:2151  VRFV2PlusClient._argsToBytes(... */\n      jump\t// in\n    tag_63:\n        /* \"consumer/x.sol\":1696:2163  VRFV2PlusClient.RandomWordsRequest({... */\n      dup2\n      mstore\n      pop\n        /* \"consumer/x.sol\":1650:2170  s_vrfCoordinator.requestRandomWords(... */\n      mload(0x40)\n      dup3\n      0xffffffff\n      and\n      0xe0\n      shl\n      dup2\n      mstore\n      0x04\n      add\n      tag_65\n      swap2\n      swap1\n      tag_66\n      jump\t// in\n    tag_65:\n      0x20\n      mload(0x40)\n      dup1\n      dup4\n      sub\n      dup2\n      0x00\n      dup8\n      gas\n      call\n      iszero\n      dup1\n      iszero\n      tag_68\n      jumpi\n      returndatasize\n      0x00\n      dup1\n      returndatacopy\n      revert(0x00, returndatasize)\n    tag_68:\n      pop\n      pop\n      pop\n      pop\n      mload(0x40)\n      returndatasize\n      not(0x1f)\n      0x1f\n      dup3\n      add\n      and\n      dup3\n      add\n      dup1\n      0x40\n      mstore\n      pop\n      dup2\n      add\n      swap1\n      tag_69\n      swap2\n      swap1\n      tag_70\n      jump\t// in\n    tag_69:\n        /* \"consumer/x.sol\":1630:2170  uint256 requestId = s_vrfCoordinator.requestRandomWords(... */\n      swap1\n      pop\n        /* \"consumer/x.sol\":2206:2215  requestId */\n      dup1\n        /* \"consumer/x.sol\":2182:2216  RequestRandomWordsEvent(requestId) */\n      0x65aac2e6154c440cacd6ba3572fde44877c21dbb2cf7e8016b751dd67deda884\n      mload(0x40)\n      mload(0x40)\n      dup1\n      swap2\n      sub\n      swap1\n      log2\n        /* \"consumer/x.sol\":2230:2239  requestId */\n      dup1\n        /* \"consumer/x.sol\":2223:2239  return requestId */\n      swap2\n      pop\n      pop\n        /* \"consumer/x.sol\":1541:2249  function randomReq(bool enableNativePayment) external onlyOwner returns (uint256){... */\n      swap2\n      swap1\n      pop\n      jump\t// out\n        /* \"@chainlink/contracts@1.2.0/src/v0.8/vrf/dev/VRFConsumerBaseV2Plus.sol\":6077:6122  IVRFCoordinatorV2Plus public s_vrfCoordinator */\n    tag_32:\n      0x02\n      0x00\n      swap1\n      sload\n      swap1\n      0x0100\n      exp\n      swap1\n      div\n      0xffffffffffffffffffffffffffffffffffffffff\n      and\n      dup2\n      jump\t// out\n        /* \"@chainlink/contracts@1.2.0/src/v0.8/shared/access/ConfirmedOwnerWithProposal.sol\":847:945  function transferOwnership(address to) public override onlyOwner {... */\n    tag_37:\n        /* \"@chainlink/contracts@1.2.0/src/v0.8/shared/access/ConfirmedOwnerWithProposal.sol\":2075:2095  _validateOwnership() */\n      tag_72\n        /* \"@chainlink/contracts@1.2.0/src/v0.8/shared/access/ConfirmedOwnerWithProposal.sol\":2075:2093  _validateOwnership */\n      tag_61\n        /* \"@chainlink/contracts@1.2.0/src/v0.8/shared/access/ConfirmedOwnerWithProposal.sol\":2075:2095  _validateOwnership() */\n      jump\t// in\n    tag_72:\n        /* \"@chainlink/contracts@1.2.0/src/v0.8/shared/access/ConfirmedOwnerWithProposal.sol\":918:940  _transferOwnership(to) */\n      tag_74\n        /* \"@chainlink/contracts@1.2.0/src/v0.8/shared/access/ConfirmedOwnerWithProposal.sol\":937:939  to */\n      dup2\n        /* \"@chainlink/contracts@1.2.0/src/v0.8/shared/access/ConfirmedOwnerWithProposal.sol\":918:936  _transferOwnership */\n      tag_75\n        /* \"@chainlink/contracts@1.2.0/src/v0.8/shared/access/ConfirmedOwnerWithProposal.sol\":918:940  _transferOwnership(to) */\n      jump\t// in\n    tag_74:\n        /* \"@chainlink/contracts@1.2.0/src/v0.8/shared/access/ConfirmedOwnerWithProposal.sol\":847:945  function transferOwnership(address to) public override onlyOwner {... */\n      pop\n      jump\t// out\n        /* \"consumer/x.sol\":2261:2367  function fulfillRandomWords(uint256 requestId, uint256[] calldata randomWords) internal override{... */\n    tag_43:\n      pop\n      pop\n      pop\n      jump\t// out\n        /* \"@chainlink/contracts@1.2.0/src/v0.8/shared/access/ConfirmedOwnerWithProposal.sol\":1809:1971  function _validateOwnership() internal view {... */\n    tag_61:\n        /* \"@chainlink/contracts@1.2.0/src/v0.8/shared/access/ConfirmedOwnerWithProposal.sol\":1932:1939  s_owner */\n      0x00\n      dup1\n      sload\n      swap1\n      0x0100\n      exp\n      swap1\n      div\n      0xffffffffffffffffffffffffffffffffffffffff\n      and\n        /* \"@chainlink/contracts@1.2.0/src/v0.8/shared/access/ConfirmedOwnerWithProposal.sol\":1918:1939  msg.sender == s_owner */\n      0xffffffffffffffffffffffffffffffffffffffff\n      and\n        /* \"@chainlink/contracts@1.2.0/src/v0.8/shared/access/ConfirmedOwnerWithProposal.sol\":1918:1928  msg.sender */\n      caller\n        /* \"@chainlink/contracts@1.2.0/src/v0.8/shared/access/ConfirmedOwnerWithProposal.sol\":1918:1939  msg.sender == s_owner */\n      0xffffffffffffffffffffffffffffffffffffffff\n      and\n      eq\n        /* \"@chainlink/contracts@1.2.0/src/v0.8/shared/access/ConfirmedOwnerWithProposal.sol\":1910:1966  require(msg.sender == s_owner, \"Only callable by owner\") */\n      tag_78\n      jumpi\n      mload(0x40)\n      0x08c379a000000000000000000000000000000000000000000000000000000000\n      dup2\n      mstore\n      0x04\n      add\n      tag_79\n      swap1\n      tag_80\n      jump\t// in\n    tag_79:\n      mload(0x40)\n      dup1\n      swap2\n      sub\n      swap1\n      revert\n    tag_78:\n        /* \"@chainlink/contracts@1.2.0/src/v0.8/shared/access/ConfirmedOwnerWithProposal.sol\":1809:1971  function _validateOwnership() internal view {... */\n      jump\t// out\n        /* \"@chainlink/contracts@1.2.0/src/v0.8/vrf/dev/libraries/VRFV2PlusClient.sol\":475:638  function _argsToBytes(ExtraArgsV1 memory extraArgs) internal pure returns (bytes memory bts) {... */\n    tag_64:\n        /* \"@chainlink/contracts@1.2.0/src/v0.8/vrf/dev/libraries/VRFV2PlusClient.sol\":550:566  bytes memory bts */\n      0x60\n        /* \"@chainlink/contracts@1.2.0/src/v0.8/vrf/dev/libraries/VRFV2PlusClient.sol\":211:239  keccak256(\"VRF ExtraArgsV1\") */\n      0x92fd13387c7fe7befbc38d303d6468778fb9731bc4583f17d92989c6fcfdeaaa\n        /* \"@chainlink/contracts@1.2.0/src/v0.8/vrf/dev/libraries/VRFV2PlusClient.sol\":623:632  extraArgs */\n      dup3\n        /* \"@chainlink/contracts@1.2.0/src/v0.8/vrf/dev/libraries/VRFV2PlusClient.sol\":581:633  abi.encodeWithSelector(EXTRA_ARGS_V1_TAG, extraArgs) */\n      add(0x24, mload(0x40))\n      tag_82\n      swap2\n      swap1\n      tag_83\n      jump\t// in\n    tag_82:\n      mload(0x40)\n      0x20\n      dup2\n      dup4\n      sub\n      sub\n      dup2\n      mstore\n      swap1\n      0x40\n      mstore\n      swap1\n      not(0xffffffffffffffffffffffffffffffffffffffffffffffffffffffff)\n      and\n      0x20\n      dup3\n      add\n      dup1\n      mload\n      0xffffffffffffffffffffffffffffffffffffffffffffffffffffffff\n      dup4\n      dup2\n      dup4\n      and\n      or\n      dup4\n      mstore\n      pop\n      pop\n      pop\n      pop\n        /* \"@chainlink/contracts@1.2.0/src/v0.8/vrf/dev/libraries/VRFV2PlusClient.sol\":574:633  return abi.encodeWithSelector(EXTRA_ARGS_V1_TAG, extraArgs) */\n      swap1\n      pop\n        /* \"@chainlink/contracts@1.2.0/src/v0.8/vrf/dev/libraries/VRFV2PlusClient.sol\":475:638  function _argsToBytes(ExtraArgsV1 memory extraArgs) internal pure returns (bytes memory bts) {... */\n      swap2\n      swap1\n      pop\n      jump\t// out\n        /* \"@chainlink/contracts@1.2.0/src/v0.8/shared/access/ConfirmedOwnerWithProposal.sol\":1536:1775  function _transferOwnership(address to) private {... */\n    tag_75:\n        /* \"@chainlink/contracts@1.2.0/src/v0.8/shared/access/ConfirmedOwnerWithProposal.sol\":1655:1665  msg.sender */\n      caller\n        /* \"@chainlink/contracts@1.2.0/src/v0.8/shared/access/ConfirmedOwnerWithProposal.sol\":1649:1665  to != msg.sender */\n      0xffffffffffffffffffffffffffffffffffffffff\n      and\n        /* \"@chainlink/contracts@1.2.0/src/v0.8/shared/access/ConfirmedOwnerWithProposal.sol\":1649:1651  to */\n      dup2\n        /* \"@chainlink/contracts@1.2.0/src/v0.8/shared/access/ConfirmedOwnerWithProposal.sol\":1649:1665  to != msg.sender */\n      0xffffffffffffffffffffffffffffffffffffffff\n      and\n      sub\n        /* \"@chainlink/contracts@1.2.0/src/v0.8/shared/access/ConfirmedOwnerWithProposal.sol\":1641:1693  require(to != msg.sender, \"Cannot transfer to self\") */\n      tag_85\n      jumpi\n      mload(0x40)\n      0x08c379a000000000000000000000000000000000000000000000000000000000\n      dup2\n      mstore\n      0x04\n      add\n      tag_86\n      swap1\n      tag_87\n      jump\t// in\n    tag_86:\n      mload(0x40)\n      dup1\n      swap2\n      sub\n      swap1\n      revert\n    tag_85:\n        /* \"@chainlink/contracts@1.2.0/src/v0.8/shared/access/ConfirmedOwnerWithProposal.sol\":1717:1719  to */\n      dup1\n        /* \"@chainlink/contracts@1.2.0/src/v0.8/shared/access/ConfirmedOwnerWithProposal.sol\":1700:1714  s_pendingOwner */\n      0x01\n      0x00\n        /* \"@chainlink/contracts@1.2.0/src/v0.8/shared/access/ConfirmedOwnerWithProposal.sol\":1700:1719  s_pendingOwner = to */\n      0x0100\n      exp\n      dup2\n      sload\n      dup2\n      0xffffffffffffffffffffffffffffffffffffffff\n      mul\n      not\n      and\n      swap1\n      dup4\n      0xffffffffffffffffffffffffffffffffffffffff\n      and\n      mul\n      or\n      swap1\n      sstore\n      pop\n        /* \"@chainlink/contracts@1.2.0/src/v0.8/shared/access/ConfirmedOwnerWithProposal.sol\":1767:1769  to */\n      dup1\n        /* \"@chainlink/contracts@1.2.0/src/v0.8/shared/access/ConfirmedOwnerWithProposal.sol\":1731:1770  OwnershipTransferRequested(s_owner, to) */\n      0xffffffffffffffffffffffffffffffffffffffff\n      and\n        /* \"@chainlink/contracts@1.2.0/src/v0.8/shared/access/ConfirmedOwnerWithProposal.sol\":1758:1765  s_owner */\n      0x00\n      dup1\n      sload\n      swap1\n      0x0100\n      exp\n      swap1\n      div\n      0xffffffffffffffffffffffffffffffffffffffff\n      and\n        /* \"@chainlink/contracts@1.2.0/src/v0.8/shared/access/ConfirmedOwnerWithProposal.sol\":1731:1770  OwnershipTransferRequested(s_owner, to) */\n      0xffffffffffffffffffffffffffffffffffffffff\n      and\n      0xed8889f560326eb138920d842192f0eb3dd22b4f139c87a2c57538e05bae1278\n      mload(0x40)\n      mload(0x40)\n      dup1\n      swap2\n      sub\n      swap1\n      log3\n        /* \"@chainlink/contracts@1.2.0/src/v0.8/shared/access/ConfirmedOwnerWithProposal.sol\":1536:1775  function _transferOwnership(address to) private {... */\n      pop\n      jump\t// out\n        /* \"#utility.yul\":88:205   */\n    tag_89:\n        /* \"#utility.yul\":197:198   */\n      0x00\n        /* \"#utility.yul\":194:195   */\n      dup1\n        /* \"#utility.yul\":187:199   */\n      revert\n        /* \"#utility.yul\":211:328   */\n    tag_90:\n        /* \"#utility.yul\":320:321   */\n      0x00\n        /* \"#utility.yul\":317:318   */\n      dup1\n        /* \"#utility.yul\":310:322   */\n      revert\n        /* \"#utility.yul\":334:411   */\n    tag_91:\n        /* \"#utility.yul\":371:378   */\n      0x00\n        /* \"#utility.yul\":400:405   */\n      dup2\n        /* \"#utility.yul\":389:405   */\n      swap1\n      pop\n        /* \"#utility.yul\":334:411   */\n      swap2\n      swap1\n      pop\n      jump\t// out\n        /* \"#utility.yul\":417:539   */\n    tag_92:\n        /* \"#utility.yul\":490:514   */\n      tag_141\n        /* \"#utility.yul\":508:513   */\n      dup2\n        /* \"#utility.yul\":490:514   */\n      tag_91\n      jump\t// in\n    tag_141:\n        /* \"#utility.yul\":483:488   */\n      dup2\n        /* \"#utility.yul\":480:515   */\n      eq\n        /* \"#utility.yul\":470:533   */\n      tag_142\n      jumpi\n        /* \"#utility.yul\":529:530   */\n      0x00\n        /* \"#utility.yul\":526:527   */\n      dup1\n        /* \"#utility.yul\":519:531   */\n      revert\n        /* \"#utility.yul\":470:533   */\n    tag_142:\n        /* \"#utility.yul\":417:539   */\n      pop\n      jump\t// out\n        /* \"#utility.yul\":545:684   */\n    tag_93:\n        /* \"#utility.yul\":591:596   */\n      0x00\n        /* \"#utility.yul\":629:635   */\n      dup2\n        /* \"#utility.yul\":616:636   */\n      calldataload\n        /* \"#utility.yul\":607:636   */\n      swap1\n      pop\n        /* \"#utility.yul\":645:678   */\n      tag_144\n        /* \"#utility.yul\":672:677   */\n      dup2\n        /* \"#utility.yul\":645:678   */\n      tag_92\n      jump\t// in\n    tag_144:\n        /* \"#utility.yul\":545:684   */\n      swap3\n      swap2\n      pop\n      pop\n      jump\t// out\n        /* \"#utility.yul\":690:807   */\n    tag_94:\n        /* \"#utility.yul\":799:800   */\n      0x00\n        /* \"#utility.yul\":796:797   */\n      dup1\n        /* \"#utility.yul\":789:801   */\n      revert\n        /* \"#utility.yul\":813:930   */\n    tag_95:\n        /* \"#utility.yul\":922:923   */\n      0x00\n        /* \"#utility.yul\":919:920   */\n      dup1\n        /* \"#utility.yul\":912:924   */\n      revert\n        /* \"#utility.yul\":936:1053   */\n    tag_96:\n        /* \"#utility.yul\":1045:1046   */\n      0x00\n        /* \"#utility.yul\":1042:1043   */\n      dup1\n        /* \"#utility.yul\":1035:1047   */\n      revert\n        /* \"#utility.yul\":1076:1644   */\n    tag_97:\n        /* \"#utility.yul\":1149:1157   */\n      0x00\n        /* \"#utility.yul\":1159:1165   */\n      dup1\n        /* \"#utility.yul\":1209:1212   */\n      dup4\n        /* \"#utility.yul\":1202:1206   */\n      0x1f\n        /* \"#utility.yul\":1194:1200   */\n      dup5\n        /* \"#utility.yul\":1190:1207   */\n      add\n        /* \"#utility.yul\":1186:1213   */\n      slt\n        /* \"#utility.yul\":1176:1298   */\n      tag_149\n      jumpi\n        /* \"#utility.yul\":1217:1296   */\n      tag_150\n      tag_94\n      jump\t// in\n    tag_150:\n        /* \"#utility.yul\":1176:1298   */\n    tag_149:\n        /* \"#utility.yul\":1330:1336   */\n      dup3\n        /* \"#utility.yul\":1317:1337   */\n      calldataload\n        /* \"#utility.yul\":1307:1337   */\n      swap1\n      pop\n        /* \"#utility.yul\":1360:1378   */\n      0xffffffffffffffff\n        /* \"#utility.yul\":1352:1358   */\n      dup2\n        /* \"#utility.yul\":1349:1379   */\n      gt\n        /* \"#utility.yul\":1346:1463   */\n      iszero\n      tag_151\n      jumpi\n        /* \"#utility.yul\":1382:1461   */\n      tag_152\n      tag_95\n      jump\t// in\n    tag_152:\n        /* \"#utility.yul\":1346:1463   */\n    tag_151:\n        /* \"#utility.yul\":1496:1500   */\n      0x20\n        /* \"#utility.yul\":1488:1494   */\n      dup4\n        /* \"#utility.yul\":1484:1501   */\n      add\n        /* \"#utility.yul\":1472:1501   */\n      swap2\n      pop\n        /* \"#utility.yul\":1550:1553   */\n      dup4\n        /* \"#utility.yul\":1542:1546   */\n      0x20\n        /* \"#utility.yul\":1534:1540   */\n      dup3\n        /* \"#utility.yul\":1530:1547   */\n      mul\n        /* \"#utility.yul\":1520:1528   */\n      dup4\n        /* \"#utility.yul\":1516:1548   */\n      add\n        /* \"#utility.yul\":1513:1554   */\n      gt\n        /* \"#utility.yul\":1510:1638   */\n      iszero\n      tag_153\n      jumpi\n        /* \"#utility.yul\":1557:1636   */\n      tag_154\n      tag_96\n      jump\t// in\n    tag_154:\n        /* \"#utility.yul\":1510:1638   */\n    tag_153:\n        /* \"#utility.yul\":1076:1644   */\n      swap3\n      pop\n      swap3\n      swap1\n      pop\n      jump\t// out\n        /* \"#utility.yul\":1650:2354   */\n    tag_13:\n        /* \"#utility.yul\":1745:1751   */\n      0x00\n        /* \"#utility.yul\":1753:1759   */\n      dup1\n        /* \"#utility.yul\":1761:1767   */\n      0x00\n        /* \"#utility.yul\":1810:1812   */\n      0x40\n        /* \"#utility.yul\":1798:1807   */\n      dup5\n        /* \"#utility.yul\":1789:1796   */\n      dup7\n        /* \"#utility.yul\":1785:1808   */\n      sub\n        /* \"#utility.yul\":1781:1813   */\n      slt\n        /* \"#utility.yul\":1778:1897   */\n      iszero\n      tag_156\n      jumpi\n        /* \"#utility.yul\":1816:1895   */\n      tag_157\n      tag_89\n      jump\t// in\n    tag_157:\n        /* \"#utility.yul\":1778:1897   */\n    tag_156:\n        /* \"#utility.yul\":1936:1937   */\n      0x00\n        /* \"#utility.yul\":1961:2014   */\n      tag_158\n        /* \"#utility.yul\":2006:2013   */\n      dup7\n        /* \"#utility.yul\":1997:2003   */\n      dup3\n        /* \"#utility.yul\":1986:1995   */\n      dup8\n        /* \"#utility.yul\":1982:2004   */\n      add\n        /* \"#utility.yul\":1961:2014   */\n      tag_93\n      jump\t// in\n    tag_158:\n        /* \"#utility.yul\":1951:2014   */\n      swap4\n      pop\n        /* \"#utility.yul\":1907:2024   */\n      pop\n        /* \"#utility.yul\":2091:2093   */\n      0x20\n        /* \"#utility.yul\":2080:2089   */\n      dup5\n        /* \"#utility.yul\":2076:2094   */\n      add\n        /* \"#utility.yul\":2063:2095   */\n      calldataload\n        /* \"#utility.yul\":2122:2140   */\n      0xffffffffffffffff\n        /* \"#utility.yul\":2114:2120   */\n      dup2\n        /* \"#utility.yul\":2111:2141   */\n      gt\n        /* \"#utility.yul\":2108:2225   */\n      iszero\n      tag_159\n      jumpi\n        /* \"#utility.yul\":2144:2223   */\n      tag_160\n      tag_90\n      jump\t// in\n    tag_160:\n        /* \"#utility.yul\":2108:2225   */\n    tag_159:\n        /* \"#utility.yul\":2257:2337   */\n      tag_161\n        /* \"#utility.yul\":2329:2336   */\n      dup7\n        /* \"#utility.yul\":2320:2326   */\n      dup3\n        /* \"#utility.yul\":2309:2318   */\n      dup8\n        /* \"#utility.yul\":2305:2327   */\n      add\n        /* \"#utility.yul\":2257:2337   */\n      tag_97\n      jump\t// in\n    tag_161:\n        /* \"#utility.yul\":2239:2337   */\n      swap3\n      pop\n      swap3\n      pop\n        /* \"#utility.yul\":2034:2347   */\n      pop\n        /* \"#utility.yul\":1650:2354   */\n      swap3\n      pop\n      swap3\n      pop\n      swap3\n      jump\t// out\n        /* \"#utility.yul\":2360:2486   */\n    tag_98:\n        /* \"#utility.yul\":2397:2404   */\n      0x00\n        /* \"#utility.yul\":2437:2479   */\n      0xffffffffffffffffffffffffffffffffffffffff\n        /* \"#utility.yul\":2430:2435   */\n      dup3\n        /* \"#utility.yul\":2426:2480   */\n      and\n        /* \"#utility.yul\":2415:2480   */\n      swap1\n      pop\n        /* \"#utility.yul\":2360:2486   */\n      swap2\n      swap1\n      pop\n      jump\t// out\n        /* \"#utility.yul\":2492:2588   */\n    tag_99:\n        /* \"#utility.yul\":2529:2536   */\n      0x00\n        /* \"#utility.yul\":2558:2582   */\n      tag_164\n        /* \"#utility.yul\":2576:2581   */\n      dup3\n        /* \"#utility.yul\":2558:2582   */\n      tag_98\n      jump\t// in\n    tag_164:\n        /* \"#utility.yul\":2547:2582   */\n      swap1\n      pop\n        /* \"#utility.yul\":2492:2588   */\n      swap2\n      swap1\n      pop\n      jump\t// out\n        /* \"#utility.yul\":2594:2712   */\n    tag_100:\n        /* \"#utility.yul\":2681:2705   */\n      tag_166\n        /* \"#utility.yul\":2699:2704   */\n      dup2\n        /* \"#utility.yul\":2681:2705   */\n      tag_99\n      jump\t// in\n    tag_166:\n        /* \"#utility.yul\":2676:2679   */\n      dup3\n        /* \"#utility.yul\":2669:2706   */\n      mstore\n        /* \"#utility.yul\":2594:2712   */\n      pop\n      pop\n      jump\t// out\n        /* \"#utility.yul\":2718:2940   */\n    tag_20:\n        /* \"#utility.yul\":2811:2815   */\n      0x00\n        /* \"#utility.yul\":2849:2851   */\n      0x20\n        /* \"#utility.yul\":2838:2847   */\n      dup3\n        /* \"#utility.yul\":2834:2852   */\n      add\n        /* \"#utility.yul\":2826:2852   */\n      swap1\n      pop\n        /* \"#utility.yul\":2862:2933   */\n      tag_168\n        /* \"#utility.yul\":2930:2931   */\n      0x00\n        /* \"#utility.yul\":2919:2928   */\n      dup4\n        /* \"#utility.yul\":2915:2932   */\n      add\n        /* \"#utility.yul\":2906:2912   */\n      dup5\n        /* \"#utility.yul\":2862:2933   */\n      tag_100\n      jump\t// in\n    tag_168:\n        /* \"#utility.yul\":2718:2940   */\n      swap3\n      swap2\n      pop\n      pop\n      jump\t// out\n        /* \"#utility.yul\":2946:3068   */\n    tag_101:\n        /* \"#utility.yul\":3019:3043   */\n      tag_170\n        /* \"#utility.yul\":3037:3042   */\n      dup2\n        /* \"#utility.yul\":3019:3043   */\n      tag_99\n      jump\t// in\n    tag_170:\n        /* \"#utility.yul\":3012:3017   */\n      dup2\n        /* \"#utility.yul\":3009:3044   */\n      eq\n        /* \"#utility.yul\":2999:3062   */\n      tag_171\n      jumpi\n        /* \"#utility.yul\":3058:3059   */\n      0x00\n        /* \"#utility.yul\":3055:3056   */\n      dup1\n        /* \"#utility.yul\":3048:3060   */\n      revert\n        /* \"#utility.yul\":2999:3062   */\n    tag_171:\n        /* \"#utility.yul\":2946:3068   */\n      pop\n      jump\t// out\n        /* \"#utility.yul\":3074:3213   */\n    tag_102:\n        /* \"#utility.yul\":3120:3125   */\n      0x00\n        /* \"#utility.yul\":3158:3164   */\n      dup2\n        /* \"#utility.yul\":3145:3165   */\n      calldataload\n        /* \"#utility.yul\":3136:3165   */\n      swap1\n      pop\n        /* \"#utility.yul\":3174:3207   */\n      tag_173\n        /* \"#utility.yul\":3201:3206   */\n      dup2\n        /* \"#utility.yul\":3174:3207   */\n      tag_101\n      jump\t// in\n    tag_173:\n        /* \"#utility.yul\":3074:3213   */\n      swap3\n      swap2\n      pop\n      pop\n      jump\t// out\n        /* \"#utility.yul\":3219:3548   */\n    tag_23:\n        /* \"#utility.yul\":3278:3284   */\n      0x00\n        /* \"#utility.yul\":3327:3329   */\n      0x20\n        /* \"#utility.yul\":3315:3324   */\n      dup3\n        /* \"#utility.yul\":3306:3313   */\n      dup5\n        /* \"#utility.yul\":3302:3325   */\n      sub\n        /* \"#utility.yul\":3298:3330   */\n      slt\n        /* \"#utility.yul\":3295:3414   */\n      iszero\n      tag_175\n      jumpi\n        /* \"#utility.yul\":3333:3412   */\n      tag_176\n      tag_89\n      jump\t// in\n    tag_176:\n        /* \"#utility.yul\":3295:3414   */\n    tag_175:\n        /* \"#utility.yul\":3453:3454   */\n      0x00\n        /* \"#utility.yul\":3478:3531   */\n      tag_177\n        /* \"#utility.yul\":3523:3530   */\n      dup5\n        /* \"#utility.yul\":3514:3520   */\n      dup3\n        /* \"#utility.yul\":3503:3512   */\n      dup6\n        /* \"#utility.yul\":3499:3521   */\n      add\n        /* \"#utility.yul\":3478:3531   */\n      tag_102\n      jump\t// in\n    tag_177:\n        /* \"#utility.yul\":3468:3531   */\n      swap2\n      pop\n        /* \"#utility.yul\":3424:3541   */\n      pop\n        /* \"#utility.yul\":3219:3548   */\n      swap3\n      swap2\n      pop\n      pop\n      jump\t// out\n        /* \"#utility.yul\":3554:3644   */\n    tag_103:\n        /* \"#utility.yul\":3588:3595   */\n      0x00\n        /* \"#utility.yul\":3631:3636   */\n      dup2\n        /* \"#utility.yul\":3624:3637   */\n      iszero\n        /* \"#utility.yul\":3617:3638   */\n      iszero\n        /* \"#utility.yul\":3606:3638   */\n      swap1\n      pop\n        /* \"#utility.yul\":3554:3644   */\n      swap2\n      swap1\n      pop\n      jump\t// out\n        /* \"#utility.yul\":3650:3766   */\n    tag_104:\n        /* \"#utility.yul\":3720:3741   */\n      tag_180\n        /* \"#utility.yul\":3735:3740   */\n      dup2\n        /* \"#utility.yul\":3720:3741   */\n      tag_103\n      jump\t// in\n    tag_180:\n        /* \"#utility.yul\":3713:3718   */\n      dup2\n        /* \"#utility.yul\":3710:3742   */\n      eq\n        /* \"#utility.yul\":3700:3760   */\n      tag_181\n      jumpi\n        /* \"#utility.yul\":3756:3757   */\n      0x00\n        /* \"#utility.yul\":3753:3754   */\n      dup1\n        /* \"#utility.yul\":3746:3758   */\n      revert\n        /* \"#utility.yul\":3700:3760   */\n    tag_181:\n        /* \"#utility.yul\":3650:3766   */\n      pop\n      jump\t// out\n        /* \"#utility.yul\":3772:3905   */\n    tag_105:\n        /* \"#utility.yul\":3815:3820   */\n      0x00\n        /* \"#utility.yul\":3853:3859   */\n      dup2\n        /* \"#utility.yul\":3840:3860   */\n      calldataload\n        /* \"#utility.yul\":3831:3860   */\n      swap1\n      pop\n        /* \"#utility.yul\":3869:3899   */\n      tag_183\n        /* \"#utility.yul\":3893:3898   */\n      dup2\n        /* \"#utility.yul\":3869:3899   */\n      tag_104\n      jump\t// in\n    tag_183:\n        /* \"#utility.yul\":3772:3905   */\n      swap3\n      swap2\n      pop\n      pop\n      jump\t// out\n        /* \"#utility.yul\":3911:4234   */\n    tag_27:\n        /* \"#utility.yul\":3967:3973   */\n      0x00\n        /* \"#utility.yul\":4016:4018   */\n      0x20\n        /* \"#utility.yul\":4004:4013   */\n      dup3\n        /* \"#utility.yul\":3995:4002   */\n      dup5\n        /* \"#utility.yul\":3991:4014   */\n      sub\n        /* \"#utility.yul\":3987:4019   */\n      slt\n        /* \"#utility.yul\":3984:4103   */\n      iszero\n      tag_185\n      jumpi\n        /* \"#utility.yul\":4022:4101   */\n      tag_186\n      tag_89\n      jump\t// in\n    tag_186:\n        /* \"#utility.yul\":3984:4103   */\n    tag_185:\n        /* \"#utility.yul\":4142:4143   */\n      0x00\n        /* \"#utility.yul\":4167:4217   */\n      tag_187\n        /* \"#utility.yul\":4209:4216   */\n      dup5\n        /* \"#utility.yul\":4200:4206   */\n      dup3\n        /* \"#utility.yul\":4189:4198   */\n      dup6\n        /* \"#utility.yul\":4185:4207   */\n      add\n        /* \"#utility.yul\":4167:4217   */\n      tag_105\n      jump\t// in\n    tag_187:\n        /* \"#utility.yul\":4157:4217   */\n      swap2\n      pop\n        /* \"#utility.yul\":4113:4227   */\n      pop\n        /* \"#utility.yul\":3911:4234   */\n      swap3\n      swap2\n      pop\n      pop\n      jump\t// out\n        /* \"#utility.yul\":4240:4358   */\n    tag_106:\n        /* \"#utility.yul\":4327:4351   */\n      tag_189\n        /* \"#utility.yul\":4345:4350   */\n      dup2\n        /* \"#utility.yul\":4327:4351   */\n      tag_91\n      jump\t// in\n    tag_189:\n        /* \"#utility.yul\":4322:4325   */\n      dup3\n        /* \"#utility.yul\":4315:4352   */\n      mstore\n        /* \"#utility.yul\":4240:4358   */\n      pop\n      pop\n      jump\t// out\n        /* \"#utility.yul\":4364:4586   */\n    tag_30:\n        /* \"#utility.yul\":4457:4461   */\n      0x00\n        /* \"#utility.yul\":4495:4497   */\n      0x20\n        /* \"#utility.yul\":4484:4493   */\n      dup3\n        /* \"#utility.yul\":4480:4498   */\n      add\n        /* \"#utility.yul\":4472:4498   */\n      swap1\n      pop\n        /* \"#utility.yul\":4508:4579   */\n      tag_191\n        /* \"#utility.yul\":4576:4577   */\n      0x00\n        /* \"#utility.yul\":4565:4574   */\n      dup4\n        /* \"#utility.yul\":4561:4578   */\n      add\n        /* \"#utility.yul\":4552:4558   */\n      dup5\n        /* \"#utility.yul\":4508:4579   */\n      tag_106\n      jump\t// in\n    tag_191:\n        /* \"#utility.yul\":4364:4586   */\n      swap3\n      swap2\n      pop\n      pop\n      jump\t// out\n        /* \"#utility.yul\":4592:4652   */\n    tag_107:\n        /* \"#utility.yul\":4620:4623   */\n      0x00\n        /* \"#utility.yul\":4641:4646   */\n      dup2\n        /* \"#utility.yul\":4634:4646   */\n      swap1\n      pop\n        /* \"#utility.yul\":4592:4652   */\n      swap2\n      swap1\n      pop\n      jump\t// out\n        /* \"#utility.yul\":4658:4800   */\n    tag_108:\n        /* \"#utility.yul\":4708:4717   */\n      0x00\n        /* \"#utility.yul\":4741:4794   */\n      tag_194\n        /* \"#utility.yul\":4759:4793   */\n      tag_195\n        /* \"#utility.yul\":4768:4792   */\n      tag_196\n        /* \"#utility.yul\":4786:4791   */\n      dup5\n        /* \"#utility.yul\":4768:4792   */\n      tag_98\n      jump\t// in\n    tag_196:\n        /* \"#utility.yul\":4759:4793   */\n      tag_107\n      jump\t// in\n    tag_195:\n        /* \"#utility.yul\":4741:4794   */\n      tag_98\n      jump\t// in\n    tag_194:\n        /* \"#utility.yul\":4728:4794   */\n      swap1\n      pop\n        /* \"#utility.yul\":4658:4800   */\n      swap2\n      swap1\n      pop\n      jump\t// out\n        /* \"#utility.yul\":4806:4932   */\n    tag_109:\n        /* \"#utility.yul\":4856:4865   */\n      0x00\n        /* \"#utility.yul\":4889:4926   */\n      tag_198\n        /* \"#utility.yul\":4920:4925   */\n      dup3\n        /* \"#utility.yul\":4889:4926   */\n      tag_108\n      jump\t// in\n    tag_198:\n        /* \"#utility.yul\":4876:4926   */\n      swap1\n      pop\n        /* \"#utility.yul\":4806:4932   */\n      swap2\n      swap1\n      pop\n      jump\t// out\n        /* \"#utility.yul\":4938:5093   */\n    tag_110:\n        /* \"#utility.yul\":5017:5026   */\n      0x00\n        /* \"#utility.yul\":5050:5087   */\n      tag_200\n        /* \"#utility.yul\":5081:5086   */\n      dup3\n        /* \"#utility.yul\":5050:5087   */\n      tag_109\n      jump\t// in\n    tag_200:\n        /* \"#utility.yul\":5037:5087   */\n      swap1\n      pop\n        /* \"#utility.yul\":4938:5093   */\n      swap2\n      swap1\n      pop\n      jump\t// out\n        /* \"#utility.yul\":5099:5288   */\n    tag_111:\n        /* \"#utility.yul\":5215:5281   */\n      tag_202\n        /* \"#utility.yul\":5275:5280   */\n      dup2\n        /* \"#utility.yul\":5215:5281   */\n      tag_110\n      jump\t// in\n    tag_202:\n        /* \"#utility.yul\":5210:5213   */\n      dup3\n        /* \"#utility.yul\":5203:5282   */\n      mstore\n        /* \"#utility.yul\":5099:5288   */\n      pop\n      pop\n      jump\t// out\n        /* \"#utility.yul\":5294:5574   */\n    tag_34:\n        /* \"#utility.yul\":5416:5420   */\n      0x00\n        /* \"#utility.yul\":5454:5456   */\n      0x20\n        /* \"#utility.yul\":5443:5452   */\n      dup3\n        /* \"#utility.yul\":5439:5457   */\n      add\n        /* \"#utility.yul\":5431:5457   */\n      swap1\n      pop\n        /* \"#utility.yul\":5467:5567   */\n      tag_204\n        /* \"#utility.yul\":5564:5565   */\n      0x00\n        /* \"#utility.yul\":5553:5562   */\n      dup4\n        /* \"#utility.yul\":5549:5566   */\n      add\n        /* \"#utility.yul\":5540:5546   */\n      dup5\n        /* \"#utility.yul\":5467:5567   */\n      tag_111\n      jump\t// in\n    tag_204:\n        /* \"#utility.yul\":5294:5574   */\n      swap3\n      swap2\n      pop\n      pop\n      jump\t// out\n        /* \"#utility.yul\":5580:5912   */\n    tag_41:\n        /* \"#utility.yul\":5701:5705   */\n      0x00\n        /* \"#utility.yul\":5739:5741   */\n      0x40\n        /* \"#utility.yul\":5728:5737   */\n      dup3\n        /* \"#utility.yul\":5724:5742   */\n      add\n        /* \"#utility.yul\":5716:5742   */\n      swap1\n      pop\n        /* \"#utility.yul\":5752:5823   */\n      tag_206\n        /* \"#utility.yul\":5820:5821   */\n      0x00\n        /* \"#utility.yul\":5809:5818   */\n      dup4\n        /* \"#utility.yul\":5805:5822   */\n      add\n        /* \"#utility.yul\":5796:5802   */\n      dup6\n        /* \"#utility.yul\":5752:5823   */\n      tag_100\n      jump\t// in\n    tag_206:\n        /* \"#utility.yul\":5833:5905   */\n      tag_207\n        /* \"#utility.yul\":5901:5903   */\n      0x20\n        /* \"#utility.yul\":5890:5899   */\n      dup4\n        /* \"#utility.yul\":5886:5904   */\n      add\n        /* \"#utility.yul\":5877:5883   */\n      dup5\n        /* \"#utility.yul\":5833:5905   */\n      tag_100\n      jump\t// in\n    tag_207:\n        /* \"#utility.yul\":5580:5912   */\n      swap4\n      swap3\n      pop\n      pop\n      pop\n      jump\t// out\n        /* \"#utility.yul\":5918:6087   */\n    tag_112:\n        /* \"#utility.yul\":6002:6013   */\n      0x00\n        /* \"#utility.yul\":6036:6042   */\n      dup3\n        /* \"#utility.yul\":6031:6034   */\n      dup3\n        /* \"#utility.yul\":6024:6043   */\n      mstore\n        /* \"#utility.yul\":6076:6080   */\n      0x20\n        /* \"#utility.yul\":6071:6074   */\n      dup3\n        /* \"#utility.yul\":6067:6081   */\n      add\n        /* \"#utility.yul\":6052:6081   */\n      swap1\n      pop\n        /* \"#utility.yul\":5918:6087   */\n      swap3\n      swap2\n      pop\n      pop\n      jump\t// out\n        /* \"#utility.yul\":6093:6265   */\n    tag_113:\n        /* \"#utility.yul\":6233:6257   */\n      0x4d7573742062652070726f706f736564206f776e657200000000000000000000\n        /* \"#utility.yul\":6229:6230   */\n      0x00\n        /* \"#utility.yul\":6221:6227   */\n      dup3\n        /* \"#utility.yul\":6217:6231   */\n      add\n        /* \"#utility.yul\":6210:6258   */\n      mstore\n        /* \"#utility.yul\":6093:6265   */\n      pop\n      jump\t// out\n        /* \"#utility.yul\":6271:6637   */\n    tag_114:\n        /* \"#utility.yul\":6413:6416   */\n      0x00\n        /* \"#utility.yul\":6434:6501   */\n      tag_211\n        /* \"#utility.yul\":6498:6500   */\n      0x16\n        /* \"#utility.yul\":6493:6496   */\n      dup4\n        /* \"#utility.yul\":6434:6501   */\n      tag_112\n      jump\t// in\n    tag_211:\n        /* \"#utility.yul\":6427:6501   */\n      swap2\n      pop\n        /* \"#utility.yul\":6510:6603   */\n      tag_212\n        /* \"#utility.yul\":6599:6602   */\n      dup3\n        /* \"#utility.yul\":6510:6603   */\n      tag_113\n      jump\t// in\n    tag_212:\n        /* \"#utility.yul\":6628:6630   */\n      0x20\n        /* \"#utility.yul\":6623:6626   */\n      dup3\n        /* \"#utility.yul\":6619:6631   */\n      add\n        /* \"#utility.yul\":6612:6631   */\n      swap1\n      pop\n        /* \"#utility.yul\":6271:6637   */\n      swap2\n      swap1\n      pop\n      jump\t// out\n        /* \"#utility.yul\":6643:7062   */\n    tag_47:\n        /* \"#utility.yul\":6809:6813   */\n      0x00\n        /* \"#utility.yul\":6847:6849   */\n      0x20\n        /* \"#utility.yul\":6836:6845   */\n      dup3\n        /* \"#utility.yul\":6832:6850   */\n      add\n        /* \"#utility.yul\":6824:6850   */\n      swap1\n      pop\n        /* \"#utility.yul\":6896:6905   */\n      dup2\n        /* \"#utility.yul\":6890:6894   */\n      dup2\n        /* \"#utility.yul\":6886:6906   */\n      sub\n        /* \"#utility.yul\":6882:6883   */\n      0x00\n        /* \"#utility.yul\":6871:6880   */\n      dup4\n        /* \"#utility.yul\":6867:6884   */\n      add\n        /* \"#utility.yul\":6860:6907   */\n      mstore\n        /* \"#utility.yul\":6924:7055   */\n      tag_214\n        /* \"#utility.yul\":7050:7054   */\n      dup2\n        /* \"#utility.yul\":6924:7055   */\n      tag_114\n      jump\t// in\n    tag_214:\n        /* \"#utility.yul\":6916:7055   */\n      swap1\n      pop\n        /* \"#utility.yul\":6643:7062   */\n      swap2\n      swap1\n      pop\n      jump\t// out\n        /* \"#utility.yul\":7068:7510   */\n    tag_55:\n        /* \"#utility.yul\":7217:7221   */\n      0x00\n        /* \"#utility.yul\":7255:7257   */\n      0x60\n        /* \"#utility.yul\":7244:7253   */\n      dup3\n        /* \"#utility.yul\":7240:7258   */\n      add\n        /* \"#utility.yul\":7232:7258   */\n      swap1\n      pop\n        /* \"#utility.yul\":7268:7339   */\n      tag_216\n        /* \"#utility.yul\":7336:7337   */\n      0x00\n        /* \"#utility.yul\":7325:7334   */\n      dup4\n        /* \"#utility.yul\":7321:7338   */\n      add\n        /* \"#utility.yul\":7312:7318   */\n      dup7\n        /* \"#utility.yul\":7268:7339   */\n      tag_100\n      jump\t// in\n    tag_216:\n        /* \"#utility.yul\":7349:7421   */\n      tag_217\n        /* \"#utility.yul\":7417:7419   */\n      0x20\n        /* \"#utility.yul\":7406:7415   */\n      dup4\n        /* \"#utility.yul\":7402:7420   */\n      add\n        /* \"#utility.yul\":7393:7399   */\n      dup6\n        /* \"#utility.yul\":7349:7421   */\n      tag_100\n      jump\t// in\n    tag_217:\n        /* \"#utility.yul\":7431:7503   */\n      tag_218\n        /* \"#utility.yul\":7499:7501   */\n      0x40\n        /* \"#utility.yul\":7488:7497   */\n      dup4\n        /* \"#utility.yul\":7484:7502   */\n      add\n        /* \"#utility.yul\":7475:7481   */\n      dup5\n        /* \"#utility.yul\":7431:7503   */\n      tag_100\n      jump\t// in\n    tag_218:\n        /* \"#utility.yul\":7068:7510   */\n      swap5\n      swap4\n      pop\n      pop\n      pop\n      pop\n      jump\t// out\n        /* \"#utility.yul\":7516:7593   */\n    tag_115:\n        /* \"#utility.yul\":7553:7560   */\n      0x00\n        /* \"#utility.yul\":7582:7587   */\n      dup2\n        /* \"#utility.yul\":7571:7587   */\n      swap1\n      pop\n        /* \"#utility.yul\":7516:7593   */\n      swap2\n      swap1\n      pop\n      jump\t// out\n        /* \"#utility.yul\":7599:7707   */\n    tag_116:\n        /* \"#utility.yul\":7676:7700   */\n      tag_221\n        /* \"#utility.yul\":7694:7699   */\n      dup2\n        /* \"#utility.yul\":7676:7700   */\n      tag_115\n      jump\t// in\n    tag_221:\n        /* \"#utility.yul\":7671:7674   */\n      dup3\n        /* \"#utility.yul\":7664:7701   */\n      mstore\n        /* \"#utility.yul\":7599:7707   */\n      pop\n      pop\n      jump\t// out\n        /* \"#utility.yul\":7713:7821   */\n    tag_117:\n        /* \"#utility.yul\":7790:7814   */\n      tag_223\n        /* \"#utility.yul\":7808:7813   */\n      dup2\n        /* \"#utility.yul\":7790:7814   */\n      tag_91\n      jump\t// in\n    tag_223:\n        /* \"#utility.yul\":7785:7788   */\n      dup3\n        /* \"#utility.yul\":7778:7815   */\n      mstore\n        /* \"#utility.yul\":7713:7821   */\n      pop\n      pop\n      jump\t// out\n        /* \"#utility.yul\":7827:7916   */\n    tag_118:\n        /* \"#utility.yul\":7863:7870   */\n      0x00\n        /* \"#utility.yul\":7903:7909   */\n      0xffff\n        /* \"#utility.yul\":7896:7901   */\n      dup3\n        /* \"#utility.yul\":7892:7910   */\n      and\n        /* \"#utility.yul\":7881:7910   */\n      swap1\n      pop\n        /* \"#utility.yul\":7827:7916   */\n      swap2\n      swap1\n      pop\n      jump\t// out\n        /* \"#utility.yul\":7922:8027   */\n    tag_119:\n        /* \"#utility.yul\":7997:8020   */\n      tag_226\n        /* \"#utility.yul\":8014:8019   */\n      dup2\n        /* \"#utility.yul\":7997:8020   */\n      tag_118\n      jump\t// in\n    tag_226:\n        /* \"#utility.yul\":7992:7995   */\n      dup3\n        /* \"#utility.yul\":7985:8021   */\n      mstore\n        /* \"#utility.yul\":7922:8027   */\n      pop\n      pop\n      jump\t// out\n        /* \"#utility.yul\":8033:8126   */\n    tag_120:\n        /* \"#utility.yul\":8069:8076   */\n      0x00\n        /* \"#utility.yul\":8109:8119   */\n      0xffffffff\n        /* \"#utility.yul\":8102:8107   */\n      dup3\n        /* \"#utility.yul\":8098:8120   */\n      and\n        /* \"#utility.yul\":8087:8120   */\n      swap1\n      pop\n        /* \"#utility.yul\":8033:8126   */\n      swap2\n      swap1\n      pop\n      jump\t// out\n        /* \"#utility.yul\":8132:8237   */\n    tag_121:\n        /* \"#utility.yul\":8207:8230   */\n      tag_229\n        /* \"#utility.yul\":8224:8229   */\n      dup2\n        /* \"#utility.yul\":8207:8230   */\n      tag_120\n      jump\t// in\n    tag_229:\n        /* \"#utility.yul\":8202:8205   */\n      dup3\n        /* \"#utility.yul\":8195:8231   */\n      mstore\n        /* \"#utility.yul\":8132:8237   */\n      pop\n      pop\n      jump\t// out\n        /* \"#utility.yul\":8243:8341   */\n    tag_122:\n        /* \"#utility.yul\":8294:8300   */\n      0x00\n        /* \"#utility.yul\":8328:8333   */\n      dup2\n        /* \"#utility.yul\":8322:8334   */\n      mload\n        /* \"#utility.yul\":8312:8334   */\n      swap1\n      pop\n        /* \"#utility.yul\":8243:8341   */\n      swap2\n      swap1\n      pop\n      jump\t// out\n        /* \"#utility.yul\":8347:8505   */\n    tag_123:\n        /* \"#utility.yul\":8420:8431   */\n      0x00\n        /* \"#utility.yul\":8454:8460   */\n      dup3\n        /* \"#utility.yul\":8449:8452   */\n      dup3\n        /* \"#utility.yul\":8442:8461   */\n      mstore\n        /* \"#utility.yul\":8494:8498   */\n      0x20\n        /* \"#utility.yul\":8489:8492   */\n      dup3\n        /* \"#utility.yul\":8485:8499   */\n      add\n        /* \"#utility.yul\":8470:8499   */\n      swap1\n      pop\n        /* \"#utility.yul\":8347:8505   */\n      swap3\n      swap2\n      pop\n      pop\n      jump\t// out\n        /* \"#utility.yul\":8511:8650   */\n    tag_124:\n        /* \"#utility.yul\":8600:8606   */\n      dup3\n        /* \"#utility.yul\":8595:8598   */\n      dup2\n        /* \"#utility.yul\":8590:8593   */\n      dup4\n        /* \"#utility.yul\":8584:8607   */\n      mcopy\n        /* \"#utility.yul\":8641:8642   */\n      0x00\n        /* \"#utility.yul\":8632:8638   */\n      dup4\n        /* \"#utility.yul\":8627:8630   */\n      dup4\n        /* \"#utility.yul\":8623:8639   */\n      add\n        /* \"#utility.yul\":8616:8643   */\n      mstore\n        /* \"#utility.yul\":8511:8650   */\n      pop\n      pop\n      pop\n      jump\t// out\n        /* \"#utility.yul\":8656:8758   */\n    tag_125:\n        /* \"#utility.yul\":8697:8703   */\n      0x00\n        /* \"#utility.yul\":8748:8750   */\n      0x1f\n        /* \"#utility.yul\":8744:8751   */\n      not\n        /* \"#utility.yul\":8739:8741   */\n      0x1f\n        /* \"#utility.yul\":8732:8737   */\n      dup4\n        /* \"#utility.yul\":8728:8742   */\n      add\n        /* \"#utility.yul\":8724:8752   */\n      and\n        /* \"#utility.yul\":8714:8752   */\n      swap1\n      pop\n        /* \"#utility.yul\":8656:8758   */\n      swap2\n      swap1\n      pop\n      jump\t// out\n        /* \"#utility.yul\":8764:9117   */\n    tag_126:\n        /* \"#utility.yul\":8840:8843   */\n      0x00\n        /* \"#utility.yul\":8868:8906   */\n      tag_235\n        /* \"#utility.yul\":8900:8905   */\n      dup3\n        /* \"#utility.yul\":8868:8906   */\n      tag_122\n      jump\t// in\n    tag_235:\n        /* \"#utility.yul\":8922:8982   */\n      tag_236\n        /* \"#utility.yul\":8975:8981   */\n      dup2\n        /* \"#utility.yul\":8970:8973   */\n      dup6\n        /* \"#utility.yul\":8922:8982   */\n      tag_123\n      jump\t// in\n    tag_236:\n        /* \"#utility.yul\":8915:8982   */\n      swap4\n      pop\n        /* \"#utility.yul\":8991:9056   */\n      tag_237\n        /* \"#utility.yul\":9049:9055   */\n      dup2\n        /* \"#utility.yul\":9044:9047   */\n      dup6\n        /* \"#utility.yul\":9037:9041   */\n      0x20\n        /* \"#utility.yul\":9030:9035   */\n      dup7\n        /* \"#utility.yul\":9026:9042   */\n      add\n        /* \"#utility.yul\":8991:9056   */\n      tag_124\n      jump\t// in\n    tag_237:\n        /* \"#utility.yul\":9081:9110   */\n      tag_238\n        /* \"#utility.yul\":9103:9109   */\n      dup2\n        /* \"#utility.yul\":9081:9110   */\n      tag_125\n      jump\t// in\n    tag_238:\n        /* \"#utility.yul\":9076:9079   */\n      dup5\n        /* \"#utility.yul\":9072:9111   */\n      add\n        /* \"#utility.yul\":9065:9111   */\n      swap2\n      pop\n        /* \"#utility.yul\":8844:9117   */\n      pop\n        /* \"#utility.yul\":8764:9117   */\n      swap3\n      swap2\n      pop\n      pop\n      jump\t// out\n        /* \"#utility.yul\":9217:10572   */\n    tag_127:\n        /* \"#utility.yul\":9356:9359   */\n      0x00\n        /* \"#utility.yul\":9392:9396   */\n      0xc0\n        /* \"#utility.yul\":9387:9390   */\n      dup4\n        /* \"#utility.yul\":9383:9397   */\n      add\n        /* \"#utility.yul\":9482:9486   */\n      0x00\n        /* \"#utility.yul\":9475:9480   */\n      dup4\n        /* \"#utility.yul\":9471:9487   */\n      add\n        /* \"#utility.yul\":9465:9488   */\n      mload\n        /* \"#utility.yul\":9501:9564   */\n      tag_240\n        /* \"#utility.yul\":9558:9562   */\n      0x00\n        /* \"#utility.yul\":9553:9556   */\n      dup7\n        /* \"#utility.yul\":9549:9563   */\n      add\n        /* \"#utility.yul\":9535:9547   */\n      dup3\n        /* \"#utility.yul\":9501:9564   */\n      tag_116\n      jump\t// in\n    tag_240:\n        /* \"#utility.yul\":9407:9574   */\n      pop\n        /* \"#utility.yul\":9657:9661   */\n      0x20\n        /* \"#utility.yul\":9650:9655   */\n      dup4\n        /* \"#utility.yul\":9646:9662   */\n      add\n        /* \"#utility.yul\":9640:9663   */\n      mload\n        /* \"#utility.yul\":9676:9739   */\n      tag_241\n        /* \"#utility.yul\":9733:9737   */\n      0x20\n        /* \"#utility.yul\":9728:9731   */\n      dup7\n        /* \"#utility.yul\":9724:9738   */\n      add\n        /* \"#utility.yul\":9710:9722   */\n      dup3\n        /* \"#utility.yul\":9676:9739   */\n      tag_117\n      jump\t// in\n    tag_241:\n        /* \"#utility.yul\":9584:9749   */\n      pop\n        /* \"#utility.yul\":9847:9851   */\n      0x40\n        /* \"#utility.yul\":9840:9845   */\n      dup4\n        /* \"#utility.yul\":9836:9852   */\n      add\n        /* \"#utility.yul\":9830:9853   */\n      mload\n        /* \"#utility.yul\":9866:9927   */\n      tag_242\n        /* \"#utility.yul\":9921:9925   */\n      0x40\n        /* \"#utility.yul\":9916:9919   */\n      dup7\n        /* \"#utility.yul\":9912:9926   */\n      add\n        /* \"#utility.yul\":9898:9910   */\n      dup3\n        /* \"#utility.yul\":9866:9927   */\n      tag_119\n      jump\t// in\n    tag_242:\n        /* \"#utility.yul\":9759:9937   */\n      pop\n        /* \"#utility.yul\":10031:10035   */\n      0x60\n        /* \"#utility.yul\":10024:10029   */\n      dup4\n        /* \"#utility.yul\":10020:10036   */\n      add\n        /* \"#utility.yul\":10014:10037   */\n      mload\n        /* \"#utility.yul\":10050:10111   */\n      tag_243\n        /* \"#utility.yul\":10105:10109   */\n      0x60\n        /* \"#utility.yul\":10100:10103   */\n      dup7\n        /* \"#utility.yul\":10096:10110   */\n      add\n        /* \"#utility.yul\":10082:10094   */\n      dup3\n        /* \"#utility.yul\":10050:10111   */\n      tag_121\n      jump\t// in\n    tag_243:\n        /* \"#utility.yul\":9947:10121   */\n      pop\n        /* \"#utility.yul\":10207:10211   */\n      0x80\n        /* \"#utility.yul\":10200:10205   */\n      dup4\n        /* \"#utility.yul\":10196:10212   */\n      add\n        /* \"#utility.yul\":10190:10213   */\n      mload\n        /* \"#utility.yul\":10226:10287   */\n      tag_244\n        /* \"#utility.yul\":10281:10285   */\n      0x80\n        /* \"#utility.yul\":10276:10279   */\n      dup7\n        /* \"#utility.yul\":10272:10286   */\n      add\n        /* \"#utility.yul\":10258:10270   */\n      dup3\n        /* \"#utility.yul\":10226:10287   */\n      tag_121\n      jump\t// in\n    tag_244:\n        /* \"#utility.yul\":10131:10297   */\n      pop\n        /* \"#utility.yul\":10384:10388   */\n      0xa0\n        /* \"#utility.yul\":10377:10382   */\n      dup4\n        /* \"#utility.yul\":10373:10389   */\n      add\n        /* \"#utility.yul\":10367:10390   */\n      mload\n        /* \"#utility.yul\":10437:10440   */\n      dup5\n        /* \"#utility.yul\":10431:10435   */\n      dup3\n        /* \"#utility.yul\":10427:10441   */\n      sub\n        /* \"#utility.yul\":10420:10424   */\n      0xa0\n        /* \"#utility.yul\":10415:10418   */\n      dup7\n        /* \"#utility.yul\":10411:10425   */\n      add\n        /* \"#utility.yul\":10404:10442   */\n      mstore\n        /* \"#utility.yul\":10463:10534   */\n      tag_245\n        /* \"#utility.yul\":10529:10533   */\n      dup3\n        /* \"#utility.yul\":10515:10527   */\n      dup3\n        /* \"#utility.yul\":10463:10534   */\n      tag_126\n      jump\t// in\n    tag_245:\n        /* \"#utility.yul\":10455:10534   */\n      swap2\n      pop\n        /* \"#utility.yul\":10307:10545   */\n      pop\n        /* \"#utility.yul\":10562:10566   */\n      dup1\n        /* \"#utility.yul\":10555:10566   */\n      swap2\n      pop\n        /* \"#utility.yul\":9361:10572   */\n      pop\n        /* \"#utility.yul\":9217:10572   */\n      swap3\n      swap2\n      pop\n      pop\n      jump\t// out\n        /* \"#utility.yul\":10578:10991   */\n    tag_66:\n        /* \"#utility.yul\":10741:10745   */\n      0x00\n        /* \"#utility.yul\":10779:10781   */\n      0x20\n        /* \"#utility.yul\":10768:10777   */\n      dup3\n        /* \"#utility.yul\":10764:10782   */\n      add\n        /* \"#utility.yul\":10756:10782   */\n      swap1\n      pop\n        /* \"#utility.yul\":10828:10837   */\n      dup2\n        /* \"#utility.yul\":10822:10826   */\n      dup2\n        /* \"#utility.yul\":10818:10838   */\n      sub\n        /* \"#utility.yul\":10814:10815   */\n      0x00\n        /* \"#utility.yul\":10803:10812   */\n      dup4\n        /* \"#utility.yul\":10799:10816   */\n      add\n        /* \"#utility.yul\":10792:10839   */\n      mstore\n        /* \"#utility.yul\":10856:10984   */\n      tag_247\n        /* \"#utility.yul\":10979:10983   */\n      dup2\n        /* \"#utility.yul\":10970:10976   */\n      dup5\n        /* \"#utility.yul\":10856:10984   */\n      tag_127\n      jump\t// in\n    tag_247:\n        /* \"#utility.yul\":10848:10984   */\n      swap1\n      pop\n        /* \"#utility.yul\":10578:10991   */\n      swap3\n      swap2\n      pop\n      pop\n      jump\t// out\n        /* \"#utility.yul\":10997:11140   */\n    tag_128:\n        /* \"#utility.yul\":11054:11059   */\n      0x00\n        /* \"#utility.yul\":11085:11091   */\n      dup2\n        /* \"#utility.yul\":11079:11092   */\n      mload\n        /* \"#utility.yul\":11070:11092   */\n      swap1\n      pop\n        /* \"#utility.yul\":11101:11134   */\n      tag_249\n        /* \"#utility.yul\":11128:11133   */\n      dup2\n        /* \"#utility.yul\":11101:11134   */\n      tag_92\n      jump\t// in\n    tag_249:\n        /* \"#utility.yul\":10997:11140   */\n      swap3\n      swap2\n      pop\n      pop\n      jump\t// out\n        /* \"#utility.yul\":11146:11497   */\n    tag_70:\n        /* \"#utility.yul\":11216:11222   */\n      0x00\n        /* \"#utility.yul\":11265:11267   */\n      0x20\n        /* \"#utility.yul\":11253:11262   */\n      dup3\n        /* \"#utility.yul\":11244:11251   */\n      dup5\n        /* \"#utility.yul\":11240:11263   */\n      sub\n        /* \"#utility.yul\":11236:11268   */\n      slt\n        /* \"#utility.yul\":11233:11352   */\n      iszero\n      tag_251\n      jumpi\n        /* \"#utility.yul\":11271:11350   */\n      tag_252\n      tag_89\n      jump\t// in\n    tag_252:\n        /* \"#utility.yul\":11233:11352   */\n    tag_251:\n        /* \"#utility.yul\":11391:11392   */\n      0x00\n        /* \"#utility.yul\":11416:11480   */\n      tag_253\n        /* \"#utility.yul\":11472:11479   */\n      dup5\n        /* \"#utility.yul\":11463:11469   */\n      dup3\n        /* \"#utility.yul\":11452:11461   */\n      dup6\n        /* \"#utility.yul\":11448:11470   */\n      add\n        /* \"#utility.yul\":11416:11480   */\n      tag_128\n      jump\t// in\n    tag_253:\n        /* \"#utility.yul\":11406:11480   */\n      swap2\n      pop\n        /* \"#utility.yul\":11362:11490   */\n      pop\n        /* \"#utility.yul\":11146:11497   */\n      swap3\n      swap2\n      pop\n      pop\n      jump\t// out\n        /* \"#utility.yul\":11503:11675   */\n    tag_129:\n        /* \"#utility.yul\":11643:11667   */\n      0x4f6e6c792063616c6c61626c65206279206f776e657200000000000000000000\n        /* \"#utility.yul\":11639:11640   */\n      0x00\n        /* \"#utility.yul\":11631:11637   */\n      dup3\n        /* \"#utility.yul\":11627:11641   */\n      add\n        /* \"#utility.yul\":11620:11668   */\n      mstore\n        /* \"#utility.yul\":11503:11675   */\n      pop\n      jump\t// out\n        /* \"#utility.yul\":11681:12047   */\n    tag_130:\n        /* \"#utility.yul\":11823:11826   */\n      0x00\n        /* \"#utility.yul\":11844:11911   */\n      tag_256\n        /* \"#utility.yul\":11908:11910   */\n      0x16\n        /* \"#utility.yul\":11903:11906   */\n      dup4\n        /* \"#utility.yul\":11844:11911   */\n      tag_112\n      jump\t// in\n    tag_256:\n        /* \"#utility.yul\":11837:11911   */\n      swap2\n      pop\n        /* \"#utility.yul\":11920:12013   */\n      tag_257\n        /* \"#utility.yul\":12009:12012   */\n      dup3\n        /* \"#utility.yul\":11920:12013   */\n      tag_129\n      jump\t// in\n    tag_257:\n        /* \"#utility.yul\":12038:12040   */\n      0x20\n        /* \"#utility.yul\":12033:12036   */\n      dup3\n        /* \"#utility.yul\":12029:12041   */\n      add\n        /* \"#utility.yul\":12022:12041   */\n      swap1\n      pop\n        /* \"#utility.yul\":11681:12047   */\n      swap2\n      swap1\n      pop\n      jump\t// out\n        /* \"#utility.yul\":12053:12472   */\n    tag_80:\n        /* \"#utility.yul\":12219:12223   */\n      0x00\n        /* \"#utility.yul\":12257:12259   */\n      0x20\n        /* \"#utility.yul\":12246:12255   */\n      dup3\n        /* \"#utility.yul\":12242:12260   */\n      add\n        /* \"#utility.yul\":12234:12260   */\n      swap1\n      pop\n        /* \"#utility.yul\":12306:12315   */\n      dup2\n        /* \"#utility.yul\":12300:12304   */\n      dup2\n        /* \"#utility.yul\":12296:12316   */\n      sub\n        /* \"#utility.yul\":12292:12293   */\n      0x00\n        /* \"#utility.yul\":12281:12290   */\n      dup4\n        /* \"#utility.yul\":12277:12294   */\n      add\n        /* \"#utility.yul\":12270:12317   */\n      mstore\n        /* \"#utility.yul\":12334:12465   */\n      tag_259\n        /* \"#utility.yul\":12460:12464   */\n      dup2\n        /* \"#utility.yul\":12334:12465   */\n      tag_130\n      jump\t// in\n    tag_259:\n        /* \"#utility.yul\":12326:12465   */\n      swap1\n      pop\n        /* \"#utility.yul\":12053:12472   */\n      swap2\n      swap1\n      pop\n      jump\t// out\n        /* \"#utility.yul\":12478:12577   */\n    tag_131:\n        /* \"#utility.yul\":12549:12570   */\n      tag_261\n        /* \"#utility.yul\":12564:12569   */\n      dup2\n        /* \"#utility.yul\":12549:12570   */\n      tag_103\n      jump\t// in\n    tag_261:\n        /* \"#utility.yul\":12544:12547   */\n      dup3\n        /* \"#utility.yul\":12537:12571   */\n      mstore\n        /* \"#utility.yul\":12478:12577   */\n      pop\n      pop\n      jump\t// out\n        /* \"#utility.yul\":12663:13005   */\n    tag_132:\n        /* \"#utility.yul\":12816:12820   */\n      0x20\n        /* \"#utility.yul\":12811:12814   */\n      dup3\n        /* \"#utility.yul\":12807:12821   */\n      add\n        /* \"#utility.yul\":12912:12916   */\n      0x00\n        /* \"#utility.yul\":12905:12910   */\n      dup3\n        /* \"#utility.yul\":12901:12917   */\n      add\n        /* \"#utility.yul\":12895:12918   */\n      mload\n        /* \"#utility.yul\":12931:12988   */\n      tag_263\n        /* \"#utility.yul\":12982:12986   */\n      0x00\n        /* \"#utility.yul\":12977:12980   */\n      dup6\n        /* \"#utility.yul\":12973:12987   */\n      add\n        /* \"#utility.yul\":12959:12971   */\n      dup3\n        /* \"#utility.yul\":12931:12988   */\n      tag_131\n      jump\t// in\n    tag_263:\n        /* \"#utility.yul\":12831:12998   */\n      pop\n        /* \"#utility.yul\":12785:13005   */\n      pop\n        /* \"#utility.yul\":12663:13005   */\n      pop\n      pop\n      jump\t// out\n        /* \"#utility.yul\":13011:13345   */\n    tag_83:\n        /* \"#utility.yul\":13160:13164   */\n      0x00\n        /* \"#utility.yul\":13198:13200   */\n      0x20\n        /* \"#utility.yul\":13187:13196   */\n      dup3\n        /* \"#utility.yul\":13183:13201   */\n      add\n        /* \"#utility.yul\":13175:13201   */\n      swap1\n      pop\n        /* \"#utility.yul\":13211:13338   */\n      tag_265\n        /* \"#utility.yul\":13335:13336   */\n      0x00\n        /* \"#utility.yul\":13324:13333   */\n      dup4\n        /* \"#utility.yul\":13320:13337   */\n      add\n        /* \"#utility.yul\":13311:13317   */\n      dup5\n        /* \"#utility.yul\":13211:13338   */\n      tag_132\n      jump\t// in\n    tag_265:\n        /* \"#utility.yul\":13011:13345   */\n      swap3\n      swap2\n      pop\n      pop\n      jump\t// out\n        /* \"#utility.yul\":13351:13524   */\n    tag_133:\n        /* \"#utility.yul\":13491:13516   */\n      0x43616e6e6f74207472616e7366657220746f2073656c66000000000000000000\n        /* \"#utility.yul\":13487:13488   */\n      0x00\n        /* \"#utility.yul\":13479:13485   */\n      dup3\n        /* \"#utility.yul\":13475:13489   */\n      add\n        /* \"#utility.yul\":13468:13517   */\n      mstore\n        /* \"#utility.yul\":13351:13524   */\n      pop\n      jump\t// out\n        /* \"#utility.yul\":13530:13896   */\n    tag_134:\n        /* \"#utility.yul\":13672:13675   */\n      0x00\n        /* \"#utility.yul\":13693:13760   */\n      tag_268\n        /* \"#utility.yul\":13757:13759   */\n      0x17\n        /* \"#utility.yul\":13752:13755   */\n      dup4\n        /* \"#utility.yul\":13693:13760   */\n      tag_112\n      jump\t// in\n    tag_268:\n        /* \"#utility.yul\":13686:13760   */\n      swap2\n      pop\n        /* \"#utility.yul\":13769:13862   */\n      tag_269\n        /* \"#utility.yul\":13858:13861   */\n      dup3\n        /* \"#utility.yul\":13769:13862   */\n      tag_133\n      jump\t// in\n    tag_269:\n        /* \"#utility.yul\":13887:13889   */\n      0x20\n        /* \"#utility.yul\":13882:13885   */\n      dup3\n        /* \"#utility.yul\":13878:13890   */\n      add\n        /* \"#utility.yul\":13871:13890   */\n      swap1\n      pop\n        /* \"#utility.yul\":13530:13896   */\n      swap2\n      swap1\n      pop\n      jump\t// out\n        /* \"#utility.yul\":13902:14321   */\n    tag_87:\n        /* \"#utility.yul\":14068:14072   */\n      0x00\n        /* \"#utility.yul\":14106:14108   */\n      0x20\n        /* \"#utility.yul\":14095:14104   */\n      dup3\n        /* \"#utility.yul\":14091:14109   */\n      add\n        /* \"#utility.yul\":14083:14109   */\n      swap1\n      pop\n        /* \"#utility.yul\":14155:14164   */\n      dup2\n        /* \"#utility.yul\":14149:14153   */\n      dup2\n        /* \"#utility.yul\":14145:14165   */\n      sub\n        /* \"#utility.yul\":14141:14142   */\n      0x00\n        /* \"#utility.yul\":14130:14139   */\n      dup4\n        /* \"#utility.yul\":14126:14143   */\n      add\n        /* \"#utility.yul\":14119:14166   */\n      mstore\n        /* \"#utility.yul\":14183:14314   */\n      tag_271\n        /* \"#utility.yul\":14309:14313   */\n      dup2\n        /* \"#utility.yul\":14183:14314   */\n      tag_134\n      jump\t// in\n    tag_271:\n        /* \"#utility.yul\":14175:14314   */\n      swap1\n      pop\n        /* \"#utility.yul\":13902:14321   */\n      swap2\n      swap1\n      pop\n      jump\t// out\n\n    auxdata: 0xa2646970667358221220f914b63017b998deffbe9dbbab109429dcd5d44a7781ce9865b20d750b33c79164736f6c634300081a0033\n}\n",
				"bytecode": {
					"linkReferences": {},
					"object": "608060405273d9145cce52d386f254917e481eb44e9943f3913860055f6101000a81548173ffffffffffffffffffffffffffffffffffffffff021916908373ffffffffffffffffffffffffffffffffffffffff1602179055507f787d74caea10b2b357790d5b5247c2f63d1d91572a9846f780606e4d953677ae5f1b600655619c4060075f6101000a81548163ffffffff021916908363ffffffff1602179055506005600760046101000a81548161ffff021916908361ffff1602179055506003600760066101000a81548163ffffffff021916908363ffffffff1602179055503480156100eb575f80fd5b5060405161159b38038061159b833981810160405281019061010d9190610479565b60055f9054906101000a900473ffffffffffffffffffffffffffffffffffffffff1633805f8073ffffffffffffffffffffffffffffffffffffffff168273ffffffffffffffffffffffffffffffffffffffff16036101a0576040517f08c379a0000000000000000000000000000000000000000000000000000000008152600401610197906104fe565b60405180910390fd5b815f806101000a81548173ffffffffffffffffffffffffffffffffffffffff021916908373ffffffffffffffffffffffffffffffffffffffff1602179055505f73ffffffffffffffffffffffffffffffffffffffff168173ffffffffffffffffffffffffffffffffffffffff1614610222576102218161031860201b60201c565b5b5050505f73ffffffffffffffffffffffffffffffffffffffff168173ffffffffffffffffffffffffffffffffffffffff160361028a576040517fd92e233d00000000000000000000000000000000000000000000000000000000815260040160405180910390fd5b8060025f6101000a81548173ffffffffffffffffffffffffffffffffffffffff021916908373ffffffffffffffffffffffffffffffffffffffff160217905550503360045f6101000a81548173ffffffffffffffffffffffffffffffffffffffff021916908373ffffffffffffffffffffffffffffffffffffffff1602179055508060038190555050610584565b3373ffffffffffffffffffffffffffffffffffffffff168173ffffffffffffffffffffffffffffffffffffffff1603610386576040517f08c379a000000000000000000000000000000000000000000000000000000000815260040161037d90610566565b60405180910390fd5b8060015f6101000a81548173ffffffffffffffffffffffffffffffffffffffff021916908373ffffffffffffffffffffffffffffffffffffffff1602179055508073ffffffffffffffffffffffffffffffffffffffff165f8054906101000a900473ffffffffffffffffffffffffffffffffffffffff1673ffffffffffffffffffffffffffffffffffffffff167fed8889f560326eb138920d842192f0eb3dd22b4f139c87a2c57538e05bae127860405160405180910390a350565b5f80fd5b5f819050919050565b61045881610446565b8114610462575f80fd5b50565b5f815190506104738161044f565b92915050565b5f6020828403121561048e5761048d610442565b5b5f61049b84828501610465565b91505092915050565b5f82825260208201905092915050565b7f43616e6e6f7420736574206f776e657220746f207a65726f00000000000000005f82015250565b5f6104e86018836104a4565b91506104f3826104b4565b602082019050919050565b5f6020820190508181035f830152610515816104dc565b9050919050565b7f43616e6e6f74207472616e7366657220746f2073656c660000000000000000005f82015250565b5f6105506017836104a4565b915061055b8261051c565b602082019050919050565b5f6020820190508181035f83015261057d81610544565b9050919050565b61100a806105915f395ff3fe608060405234801561000f575f80fd5b506004361061007b575f3560e01c80638ea98117116100595780638ea98117146100c357806399805d56146100df5780639eccacf61461010f578063f2fde38b1461012d5761007b565b80631fe543e31461007f57806379ba50971461009b5780638da5cb5b146100a5575b5f80fd5b61009960048036038101906100949190610a32565b610149565b005b6100a361020d565b005b6100ad61039c565b6040516100ba9190610ace565b60405180910390f35b6100dd60048036038101906100d89190610b11565b6103c3565b005b6100f960048036038101906100f49190610b71565b6105a0565b6040516101069190610bab565b60405180910390f35b610117610707565b6040516101249190610c1f565b60405180910390f35b61014760048036038101906101429190610b11565b61072c565b005b60025f9054906101000a900473ffffffffffffffffffffffffffffffffffffffff1673ffffffffffffffffffffffffffffffffffffffff163373ffffffffffffffffffffffffffffffffffffffff16146101fd573360025f9054906101000a900473ffffffffffffffffffffffffffffffffffffffff166040517f1cf993f40000000000000000000000000000000000000000000000000000000081526004016101f4929190610c38565b60405180910390fd5b610208838383610740565b505050565b60015f9054906101000a900473ffffffffffffffffffffffffffffffffffffffff1673ffffffffffffffffffffffffffffffffffffffff163373ffffffffffffffffffffffffffffffffffffffff161461029c576040517f08c379a000000000000000000000000000000000000000000000000000000000815260040161029390610cb9565b60405180910390fd5b5f805f9054906101000a900473ffffffffffffffffffffffffffffffffffffffff169050335f806101000a81548173ffffffffffffffffffffffffffffffffffffffff021916908373ffffffffffffffffffffffffffffffffffffffff1602179055505f60015f6101000a81548173ffffffffffffffffffffffffffffffffffffffff021916908373ffffffffffffffffffffffffffffffffffffffff1602179055503373ffffffffffffffffffffffffffffffffffffffff168173ffffffffffffffffffffffffffffffffffffffff167f8be0079c531659141344cd1fd0a4f28419497f9722a3daafe3b4186f6b6457e060405160405180910390a350565b5f805f9054906101000a900473ffffffffffffffffffffffffffffffffffffffff16905090565b6103cb61039c565b73ffffffffffffffffffffffffffffffffffffffff163373ffffffffffffffffffffffffffffffffffffffff1614158015610453575060025f9054906101000a900473ffffffffffffffffffffffffffffffffffffffff1673ffffffffffffffffffffffffffffffffffffffff163373ffffffffffffffffffffffffffffffffffffffff1614155b156104c1573361046161039c565b60025f9054906101000a900473ffffffffffffffffffffffffffffffffffffffff166040517f061db9c10000000000000000000000000000000000000000000000000000000081526004016104b893929190610cd7565b60405180910390fd5b5f73ffffffffffffffffffffffffffffffffffffffff168173ffffffffffffffffffffffffffffffffffffffff1603610526576040517fd92e233d00000000000000000000000000000000000000000000000000000000815260040160405180910390fd5b8060025f6101000a81548173ffffffffffffffffffffffffffffffffffffffff021916908373ffffffffffffffffffffffffffffffffffffffff1602179055507fd1a6a14209a385a964d036e404cb5cfb71f4000cdb03c9366292430787261be6816040516105959190610ace565b60405180910390a150565b5f6105a9610745565b5f60025f9054906101000a900473ffffffffffffffffffffffffffffffffffffffff1673ffffffffffffffffffffffffffffffffffffffff16639b1c385e6040518060c0016040528060065481526020016003548152602001600760049054906101000a900461ffff1661ffff16815260200160075f9054906101000a900463ffffffff1663ffffffff168152602001600760069054906101000a900463ffffffff1663ffffffff16815260200161067060405180602001604052808915158152506107d4565b8152506040518263ffffffff1660e01b815260040161068f9190610e63565b6020604051808303815f875af11580156106ab573d5f803e3d5ffd5b505050506040513d601f19601f820116820180604052508101906106cf9190610e97565b9050807f65aac2e6154c440cacd6ba3572fde44877c21dbb2cf7e8016b751dd67deda88460405160405180910390a280915050919050565b60025f9054906101000a900473ffffffffffffffffffffffffffffffffffffffff1681565b610734610745565b61073d8161086c565b50565b505050565b5f8054906101000a900473ffffffffffffffffffffffffffffffffffffffff1673ffffffffffffffffffffffffffffffffffffffff163373ffffffffffffffffffffffffffffffffffffffff16146107d2576040517f08c379a00000000000000000000000000000000000000000000000000000000081526004016107c990610f0c565b60405180910390fd5b565b60607f92fd13387c7fe7befbc38d303d6468778fb9731bc4583f17d92989c6fcfdeaaa826040516024016108089190610f53565b604051602081830303815290604052907bffffffffffffffffffffffffffffffffffffffffffffffffffffffff19166020820180517bffffffffffffffffffffffffffffffffffffffffffffffffffffffff83818316178352505050509050919050565b3373ffffffffffffffffffffffffffffffffffffffff168173ffffffffffffffffffffffffffffffffffffffff16036108da576040517f08c379a00000000000000000000000000000000000000000000000000000000081526004016108d190610fb6565b60405180910390fd5b8060015f6101000a81548173ffffffffffffffffffffffffffffffffffffffff021916908373ffffffffffffffffffffffffffffffffffffffff1602179055508073ffffffffffffffffffffffffffffffffffffffff165f8054906101000a900473ffffffffffffffffffffffffffffffffffffffff1673ffffffffffffffffffffffffffffffffffffffff167fed8889f560326eb138920d842192f0eb3dd22b4f139c87a2c57538e05bae127860405160405180910390a350565b5f80fd5b5f80fd5b5f819050919050565b6109b08161099e565b81146109ba575f80fd5b50565b5f813590506109cb816109a7565b92915050565b5f80fd5b5f80fd5b5f80fd5b5f8083601f8401126109f2576109f16109d1565b5b8235905067ffffffffffffffff811115610a0f57610a0e6109d5565b5b602083019150836020820283011115610a2b57610a2a6109d9565b5b9250929050565b5f805f60408486031215610a4957610a48610996565b5b5f610a56868287016109bd565b935050602084013567ffffffffffffffff811115610a7757610a7661099a565b5b610a83868287016109dd565b92509250509250925092565b5f73ffffffffffffffffffffffffffffffffffffffff82169050919050565b5f610ab882610a8f565b9050919050565b610ac881610aae565b82525050565b5f602082019050610ae15f830184610abf565b92915050565b610af081610aae565b8114610afa575f80fd5b50565b5f81359050610b0b81610ae7565b92915050565b5f60208284031215610b2657610b25610996565b5b5f610b3384828501610afd565b91505092915050565b5f8115159050919050565b610b5081610b3c565b8114610b5a575f80fd5b50565b5f81359050610b6b81610b47565b92915050565b5f60208284031215610b8657610b85610996565b5b5f610b9384828501610b5d565b91505092915050565b610ba58161099e565b82525050565b5f602082019050610bbe5f830184610b9c565b92915050565b5f819050919050565b5f610be7610be2610bdd84610a8f565b610bc4565b610a8f565b9050919050565b5f610bf882610bcd565b9050919050565b5f610c0982610bee565b9050919050565b610c1981610bff565b82525050565b5f602082019050610c325f830184610c10565b92915050565b5f604082019050610c4b5f830185610abf565b610c586020830184610abf565b9392505050565b5f82825260208201905092915050565b7f4d7573742062652070726f706f736564206f776e6572000000000000000000005f82015250565b5f610ca3601683610c5f565b9150610cae82610c6f565b602082019050919050565b5f6020820190508181035f830152610cd081610c97565b9050919050565b5f606082019050610cea5f830186610abf565b610cf76020830185610abf565b610d046040830184610abf565b949350505050565b5f819050919050565b610d1e81610d0c565b82525050565b610d2d8161099e565b82525050565b5f61ffff82169050919050565b610d4981610d33565b82525050565b5f63ffffffff82169050919050565b610d6781610d4f565b82525050565b5f81519050919050565b5f82825260208201905092915050565b8281835e5f83830152505050565b5f601f19601f8301169050919050565b5f610daf82610d6d565b610db98185610d77565b9350610dc9818560208601610d87565b610dd281610d95565b840191505092915050565b5f60c083015f830151610df25f860182610d15565b506020830151610e056020860182610d24565b506040830151610e186040860182610d40565b506060830151610e2b6060860182610d5e565b506080830151610e3e6080860182610d5e565b5060a083015184820360a0860152610e568282610da5565b9150508091505092915050565b5f6020820190508181035f830152610e7b8184610ddd565b905092915050565b5f81519050610e91816109a7565b92915050565b5f60208284031215610eac57610eab610996565b5b5f610eb984828501610e83565b91505092915050565b7f4f6e6c792063616c6c61626c65206279206f776e6572000000000000000000005f82015250565b5f610ef6601683610c5f565b9150610f0182610ec2565b602082019050919050565b5f6020820190508181035f830152610f2381610eea565b9050919050565b610f3381610b3c565b82525050565b602082015f820151610f4d5f850182610f2a565b50505050565b5f602082019050610f665f830184610f39565b92915050565b7f43616e6e6f74207472616e7366657220746f2073656c660000000000000000005f82015250565b5f610fa0601783610c5f565b9150610fab82610f6c565b602082019050919050565b5f6020820190508181035f830152610fcd81610f94565b905091905056fea2646970667358221220f914b63017b998deffbe9dbbab109429dcd5d44a7781ce9865b20d750b33c79164736f6c634300081a0033",
					"opcodes": "PUSH1 0x80 PUSH1 0x40 MSTORE PUSH20 0xD9145CCE52D386F254917E481EB44E9943F39138 PUSH1 0x5 PUSH0 PUSH2 0x100 EXP DUP2 SLOAD DUP2 PUSH20 0xFFFFFFFFFFFFFFFFFFFFFFFFFFFFFFFFFFFFFFFF MUL NOT AND SWAP1 DUP4 PUSH20 0xFFFFFFFFFFFFFFFFFFFFFFFFFFFFFFFFFFFFFFFF AND MUL OR SWAP1 SSTORE POP PUSH32 0x787D74CAEA10B2B357790D5B5247C2F63D1D91572A9846F780606E4D953677AE PUSH0 SHL PUSH1 0x6 SSTORE PUSH2 0x9C40 PUSH1 0x7 PUSH0 PUSH2 0x100 EXP DUP2 SLOAD DUP2 PUSH4 0xFFFFFFFF MUL NOT AND SWAP1 DUP4 PUSH4 0xFFFFFFFF AND MUL OR SWAP1 SSTORE POP PUSH1 0x5 PUSH1 0x7 PUSH1 0x4 PUSH2 0x100 EXP DUP2 SLOAD DUP2 PUSH2 0xFFFF MUL NOT AND SWAP1 DUP4 PUSH2 0xFFFF AND MUL OR SWAP1 SSTORE POP PUSH1 0x3 PUSH1 0x7 PUSH1 0x6 PUSH2 0x100 EXP DUP2 SLOAD DUP2 PUSH4 0xFFFFFFFF MUL NOT AND SWAP1 DUP4 PUSH4 0xFFFFFFFF AND MUL OR SWAP1 SSTORE POP CALLVALUE DUP1 ISZERO PUSH2 0xEB JUMPI PUSH0 DUP1 REVERT JUMPDEST POP PUSH1 0x40 MLOAD PUSH2 0x159B CODESIZE SUB DUP1 PUSH2 0x159B DUP4 CODECOPY DUP2 DUP2 ADD PUSH1 0x40 MSTORE DUP2 ADD SWAP1 PUSH2 0x10D SWAP2 SWAP1 PUSH2 0x479 JUMP JUMPDEST PUSH1 0x5 PUSH0 SWAP1 SLOAD SWAP1 PUSH2 0x100 EXP SWAP1 DIV PUSH20 0xFFFFFFFFFFFFFFFFFFFFFFFFFFFFFFFFFFFFFFFF AND CALLER DUP1 PUSH0 DUP1 PUSH20 0xFFFFFFFFFFFFFFFFFFFFFFFFFFFFFFFFFFFFFFFF AND DUP3 PUSH20 0xFFFFFFFFFFFFFFFFFFFFFFFFFFFFFFFFFFFFFFFF AND SUB PUSH2 0x1A0 JUMPI PUSH1 0x40 MLOAD PUSH32 0x8C379A000000000000000000000000000000000000000000000000000000000 DUP2 MSTORE PUSH1 0x4 ADD PUSH2 0x197 SWAP1 PUSH2 0x4FE JUMP JUMPDEST PUSH1 0x40 MLOAD DUP1 SWAP2 SUB SWAP1 REVERT JUMPDEST DUP2 PUSH0 DUP1 PUSH2 0x100 EXP DUP2 SLOAD DUP2 PUSH20 0xFFFFFFFFFFFFFFFFFFFFFFFFFFFFFFFFFFFFFFFF MUL NOT AND SWAP1 DUP4 PUSH20 0xFFFFFFFFFFFFFFFFFFFFFFFFFFFFFFFFFFFFFFFF AND MUL OR SWAP1 SSTORE POP PUSH0 PUSH20 0xFFFFFFFFFFFFFFFFFFFFFFFFFFFFFFFFFFFFFFFF AND DUP2 PUSH20 0xFFFFFFFFFFFFFFFFFFFFFFFFFFFFFFFFFFFFFFFF AND EQ PUSH2 0x222 JUMPI PUSH2 0x221 DUP2 PUSH2 0x318 PUSH1 0x20 SHL PUSH1 0x20 SHR JUMP JUMPDEST JUMPDEST POP POP POP PUSH0 PUSH20 0xFFFFFFFFFFFFFFFFFFFFFFFFFFFFFFFFFFFFFFFF AND DUP2 PUSH20 0xFFFFFFFFFFFFFFFFFFFFFFFFFFFFFFFFFFFFFFFF AND SUB PUSH2 0x28A JUMPI PUSH1 0x40 MLOAD PUSH32 0xD92E233D00000000000000000000000000000000000000000000000000000000 DUP2 MSTORE PUSH1 0x4 ADD PUSH1 0x40 MLOAD DUP1 SWAP2 SUB SWAP1 REVERT JUMPDEST DUP1 PUSH1 0x2 PUSH0 PUSH2 0x100 EXP DUP2 SLOAD DUP2 PUSH20 0xFFFFFFFFFFFFFFFFFFFFFFFFFFFFFFFFFFFFFFFF MUL NOT AND SWAP1 DUP4 PUSH20 0xFFFFFFFFFFFFFFFFFFFFFFFFFFFFFFFFFFFFFFFF AND MUL OR SWAP1 SSTORE POP POP CALLER PUSH1 0x4 PUSH0 PUSH2 0x100 EXP DUP2 SLOAD DUP2 PUSH20 0xFFFFFFFFFFFFFFFFFFFFFFFFFFFFFFFFFFFFFFFF MUL NOT AND SWAP1 DUP4 PUSH20 0xFFFFFFFFFFFFFFFFFFFFFFFFFFFFFFFFFFFFFFFF AND MUL OR SWAP1 SSTORE POP DUP1 PUSH1 0x3 DUP2 SWAP1 SSTORE POP POP PUSH2 0x584 JUMP JUMPDEST CALLER PUSH20 0xFFFFFFFFFFFFFFFFFFFFFFFFFFFFFFFFFFFFFFFF AND DUP2 PUSH20 0xFFFFFFFFFFFFFFFFFFFFFFFFFFFFFFFFFFFFFFFF AND SUB PUSH2 0x386 JUMPI PUSH1 0x40 MLOAD PUSH32 0x8C379A000000000000000000000000000000000000000000000000000000000 DUP2 MSTORE PUSH1 0x4 ADD PUSH2 0x37D SWAP1 PUSH2 0x566 JUMP JUMPDEST PUSH1 0x40 MLOAD DUP1 SWAP2 SUB SWAP1 REVERT JUMPDEST DUP1 PUSH1 0x1 PUSH0 PUSH2 0x100 EXP DUP2 SLOAD DUP2 PUSH20 0xFFFFFFFFFFFFFFFFFFFFFFFFFFFFFFFFFFFFFFFF MUL NOT AND SWAP1 DUP4 PUSH20 0xFFFFFFFFFFFFFFFFFFFFFFFFFFFFFFFFFFFFFFFF AND MUL OR SWAP1 SSTORE POP DUP1 PUSH20 0xFFFFFFFFFFFFFFFFFFFFFFFFFFFFFFFFFFFFFFFF AND PUSH0 DUP1 SLOAD SWAP1 PUSH2 0x100 EXP SWAP1 DIV PUSH20 0xFFFFFFFFFFFFFFFFFFFFFFFFFFFFFFFFFFFFFFFF AND PUSH20 0xFFFFFFFFFFFFFFFFFFFFFFFFFFFFFFFFFFFFFFFF AND PUSH32 0xED8889F560326EB138920D842192F0EB3DD22B4F139C87A2C57538E05BAE1278 PUSH1 0x40 MLOAD PUSH1 0x40 MLOAD DUP1 SWAP2 SUB SWAP1 LOG3 POP JUMP JUMPDEST PUSH0 DUP1 REVERT JUMPDEST PUSH0 DUP2 SWAP1 POP SWAP2 SWAP1 POP JUMP JUMPDEST PUSH2 0x458 DUP2 PUSH2 0x446 JUMP JUMPDEST DUP2 EQ PUSH2 0x462 JUMPI PUSH0 DUP1 REVERT JUMPDEST POP JUMP JUMPDEST PUSH0 DUP2 MLOAD SWAP1 POP PUSH2 0x473 DUP2 PUSH2 0x44F JUMP JUMPDEST SWAP3 SWAP2 POP POP JUMP JUMPDEST PUSH0 PUSH1 0x20 DUP3 DUP5 SUB SLT ISZERO PUSH2 0x48E JUMPI PUSH2 0x48D PUSH2 0x442 JUMP JUMPDEST JUMPDEST PUSH0 PUSH2 0x49B DUP5 DUP3 DUP6 ADD PUSH2 0x465 JUMP JUMPDEST SWAP2 POP POP SWAP3 SWAP2 POP POP JUMP JUMPDEST PUSH0 DUP3 DUP3 MSTORE PUSH1 0x20 DUP3 ADD SWAP1 POP SWAP3 SWAP2 POP POP JUMP JUMPDEST PUSH32 0x43616E6E6F7420736574206F776E657220746F207A65726F0000000000000000 PUSH0 DUP3 ADD MSTORE POP JUMP JUMPDEST PUSH0 PUSH2 0x4E8 PUSH1 0x18 DUP4 PUSH2 0x4A4 JUMP JUMPDEST SWAP2 POP PUSH2 0x4F3 DUP3 PUSH2 0x4B4 JUMP JUMPDEST PUSH1 0x20 DUP3 ADD SWAP1 POP SWAP2 SWAP1 POP JUMP JUMPDEST PUSH0 PUSH1 0x20 DUP3 ADD SWAP1 POP DUP2 DUP2 SUB PUSH0 DUP4 ADD MSTORE PUSH2 0x515 DUP2 PUSH2 0x4DC JUMP JUMPDEST SWAP1 POP SWAP2 SWAP1 POP JUMP JUMPDEST PUSH32 0x43616E6E6F74207472616E7366657220746F2073656C66000000000000000000 PUSH0 DUP3 ADD MSTORE POP JUMP JUMPDEST PUSH0 PUSH2 0x550 PUSH1 0x17 DUP4 PUSH2 0x4A4 JUMP JUMPDEST SWAP2 POP PUSH2 0x55B DUP3 PUSH2 0x51C JUMP JUMPDEST PUSH1 0x20 DUP3 ADD SWAP1 POP SWAP2 SWAP1 POP JUMP JUMPDEST PUSH0 PUSH1 0x20 DUP3 ADD SWAP1 POP DUP2 DUP2 SUB PUSH0 DUP4 ADD MSTORE PUSH2 0x57D DUP2 PUSH2 0x544 JUMP JUMPDEST SWAP1 POP SWAP2 SWAP1 POP JUMP JUMPDEST PUSH2 0x100A DUP1 PUSH2 0x591 PUSH0 CODECOPY PUSH0 RETURN INVALID PUSH1 0x80 PUSH1 0x40 MSTORE CALLVALUE DUP1 ISZERO PUSH2 0xF JUMPI PUSH0 DUP1 REVERT JUMPDEST POP PUSH1 0x4 CALLDATASIZE LT PUSH2 0x7B JUMPI PUSH0 CALLDATALOAD PUSH1 0xE0 SHR DUP1 PUSH4 0x8EA98117 GT PUSH2 0x59 JUMPI DUP1 PUSH4 0x8EA98117 EQ PUSH2 0xC3 JUMPI DUP1 PUSH4 0x99805D56 EQ PUSH2 0xDF JUMPI DUP1 PUSH4 0x9ECCACF6 EQ PUSH2 0x10F JUMPI DUP1 PUSH4 0xF2FDE38B EQ PUSH2 0x12D JUMPI PUSH2 0x7B JUMP JUMPDEST DUP1 PUSH4 0x1FE543E3 EQ PUSH2 0x7F JUMPI DUP1 PUSH4 0x79BA5097 EQ PUSH2 0x9B JUMPI DUP1 PUSH4 0x8DA5CB5B EQ PUSH2 0xA5 JUMPI JUMPDEST PUSH0 DUP1 REVERT JUMPDEST PUSH2 0x99 PUSH1 0x4 DUP1 CALLDATASIZE SUB DUP2 ADD SWAP1 PUSH2 0x94 SWAP2 SWAP1 PUSH2 0xA32 JUMP JUMPDEST PUSH2 0x149 JUMP JUMPDEST STOP JUMPDEST PUSH2 0xA3 PUSH2 0x20D JUMP JUMPDEST STOP JUMPDEST PUSH2 0xAD PUSH2 0x39C JUMP JUMPDEST PUSH1 0x40 MLOAD PUSH2 0xBA SWAP2 SWAP1 PUSH2 0xACE JUMP JUMPDEST PUSH1 0x40 MLOAD DUP1 SWAP2 SUB SWAP1 RETURN JUMPDEST PUSH2 0xDD PUSH1 0x4 DUP1 CALLDATASIZE SUB DUP2 ADD SWAP1 PUSH2 0xD8 SWAP2 SWAP1 PUSH2 0xB11 JUMP JUMPDEST PUSH2 0x3C3 JUMP JUMPDEST STOP JUMPDEST PUSH2 0xF9 PUSH1 0x4 DUP1 CALLDATASIZE SUB DUP2 ADD SWAP1 PUSH2 0xF4 SWAP2 SWAP1 PUSH2 0xB71 JUMP JUMPDEST PUSH2 0x5A0 JUMP JUMPDEST PUSH1 0x40 MLOAD PUSH2 0x106 SWAP2 SWAP1 PUSH2 0xBAB JUMP JUMPDEST PUSH1 0x40 MLOAD DUP1 SWAP2 SUB SWAP1 RETURN JUMPDEST PUSH2 0x117 PUSH2 0x707 JUMP JUMPDEST PUSH1 0x40 MLOAD PUSH2 0x124 SWAP2 SWAP1 PUSH2 0xC1F JUMP JUMPDEST PUSH1 0x40 MLOAD DUP1 SWAP2 SUB SWAP1 RETURN JUMPDEST PUSH2 0x147 PUSH1 0x4 DUP1 CALLDATASIZE SUB DUP2 ADD SWAP1 PUSH2 0x142 SWAP2 SWAP1 PUSH2 0xB11 JUMP JUMPDEST PUSH2 0x72C JUMP JUMPDEST STOP JUMPDEST PUSH1 0x2 PUSH0 SWAP1 SLOAD SWAP1 PUSH2 0x100 EXP SWAP1 DIV PUSH20 0xFFFFFFFFFFFFFFFFFFFFFFFFFFFFFFFFFFFFFFFF AND PUSH20 0xFFFFFFFFFFFFFFFFFFFFFFFFFFFFFFFFFFFFFFFF AND CALLER PUSH20 0xFFFFFFFFFFFFFFFFFFFFFFFFFFFFFFFFFFFFFFFF AND EQ PUSH2 0x1FD JUMPI CALLER PUSH1 0x2 PUSH0 SWAP1 SLOAD SWAP1 PUSH2 0x100 EXP SWAP1 DIV PUSH20 0xFFFFFFFFFFFFFFFFFFFFFFFFFFFFFFFFFFFFFFFF AND PUSH1 0x40 MLOAD PUSH32 0x1CF993F400000000000000000000000000000000000000000000000000000000 DUP2 MSTORE PUSH1 0x4 ADD PUSH2 0x1F4 SWAP3 SWAP2 SWAP1 PUSH2 0xC38 JUMP JUMPDEST PUSH1 0x40 MLOAD DUP1 SWAP2 SUB SWAP1 REVERT JUMPDEST PUSH2 0x208 DUP4 DUP4 DUP4 PUSH2 0x740 JUMP JUMPDEST POP POP POP JUMP JUMPDEST PUSH1 0x1 PUSH0 SWAP1 SLOAD SWAP1 PUSH2 0x100 EXP SWAP1 DIV PUSH20 0xFFFFFFFFFFFFFFFFFFFFFFFFFFFFFFFFFFFFFFFF AND PUSH20 0xFFFFFFFFFFFFFFFFFFFFFFFFFFFFFFFFFFFFFFFF AND CALLER PUSH20 0xFFFFFFFFFFFFFFFFFFFFFFFFFFFFFFFFFFFFFFFF AND EQ PUSH2 0x29C JUMPI PUSH1 0x40 MLOAD PUSH32 0x8C379A000000000000000000000000000000000000000000000000000000000 DUP2 MSTORE PUSH1 0x4 ADD PUSH2 0x293 SWAP1 PUSH2 0xCB9 JUMP JUMPDEST PUSH1 0x40 MLOAD DUP1 SWAP2 SUB SWAP1 REVERT JUMPDEST PUSH0 DUP1 PUSH0 SWAP1 SLOAD SWAP1 PUSH2 0x100 EXP SWAP1 DIV PUSH20 0xFFFFFFFFFFFFFFFFFFFFFFFFFFFFFFFFFFFFFFFF AND SWAP1 POP CALLER PUSH0 DUP1 PUSH2 0x100 EXP DUP2 SLOAD DUP2 PUSH20 0xFFFFFFFFFFFFFFFFFFFFFFFFFFFFFFFFFFFFFFFF MUL NOT AND SWAP1 DUP4 PUSH20 0xFFFFFFFFFFFFFFFFFFFFFFFFFFFFFFFFFFFFFFFF AND MUL OR SWAP1 SSTORE POP PUSH0 PUSH1 0x1 PUSH0 PUSH2 0x100 EXP DUP2 SLOAD DUP2 PUSH20 0xFFFFFFFFFFFFFFFFFFFFFFFFFFFFFFFFFFFFFFFF MUL NOT AND SWAP1 DUP4 PUSH20 0xFFFFFFFFFFFFFFFFFFFFFFFFFFFFFFFFFFFFFFFF AND MUL OR SWAP1 SSTORE POP CALLER PUSH20 0xFFFFFFFFFFFFFFFFFFFFFFFFFFFFFFFFFFFFFFFF AND DUP2 PUSH20 0xFFFFFFFFFFFFFFFFFFFFFFFFFFFFFFFFFFFFFFFF AND PUSH32 0x8BE0079C531659141344CD1FD0A4F28419497F9722A3DAAFE3B4186F6B6457E0 PUSH1 0x40 MLOAD PUSH1 0x40 MLOAD DUP1 SWAP2 SUB SWAP1 LOG3 POP JUMP JUMPDEST PUSH0 DUP1 PUSH0 SWAP1 SLOAD SWAP1 PUSH2 0x100 EXP SWAP1 DIV PUSH20 0xFFFFFFFFFFFFFFFFFFFFFFFFFFFFFFFFFFFFFFFF AND SWAP1 POP SWAP1 JUMP JUMPDEST PUSH2 0x3CB PUSH2 0x39C JUMP JUMPDEST PUSH20 0xFFFFFFFFFFFFFFFFFFFFFFFFFFFFFFFFFFFFFFFF AND CALLER PUSH20 0xFFFFFFFFFFFFFFFFFFFFFFFFFFFFFFFFFFFFFFFF AND EQ ISZERO DUP1 ISZERO PUSH2 0x453 JUMPI POP PUSH1 0x2 PUSH0 SWAP1 SLOAD SWAP1 PUSH2 0x100 EXP SWAP1 DIV PUSH20 0xFFFFFFFFFFFFFFFFFFFFFFFFFFFFFFFFFFFFFFFF AND PUSH20 0xFFFFFFFFFFFFFFFFFFFFFFFFFFFFFFFFFFFFFFFF AND CALLER PUSH20 0xFFFFFFFFFFFFFFFFFFFFFFFFFFFFFFFFFFFFFFFF AND EQ ISZERO JUMPDEST ISZERO PUSH2 0x4C1 JUMPI CALLER PUSH2 0x461 PUSH2 0x39C JUMP JUMPDEST PUSH1 0x2 PUSH0 SWAP1 SLOAD SWAP1 PUSH2 0x100 EXP SWAP1 DIV PUSH20 0xFFFFFFFFFFFFFFFFFFFFFFFFFFFFFFFFFFFFFFFF AND PUSH1 0x40 MLOAD PUSH32 0x61DB9C100000000000000000000000000000000000000000000000000000000 DUP2 MSTORE PUSH1 0x4 ADD PUSH2 0x4B8 SWAP4 SWAP3 SWAP2 SWAP1 PUSH2 0xCD7 JUMP JUMPDEST PUSH1 0x40 MLOAD DUP1 SWAP2 SUB SWAP1 REVERT JUMPDEST PUSH0 PUSH20 0xFFFFFFFFFFFFFFFFFFFFFFFFFFFFFFFFFFFFFFFF AND DUP2 PUSH20 0xFFFFFFFFFFFFFFFFFFFFFFFFFFFFFFFFFFFFFFFF AND SUB PUSH2 0x526 JUMPI PUSH1 0x40 MLOAD PUSH32 0xD92E233D00000000000000000000000000000000000000000000000000000000 DUP2 MSTORE PUSH1 0x4 ADD PUSH1 0x40 MLOAD DUP1 SWAP2 SUB SWAP1 REVERT JUMPDEST DUP1 PUSH1 0x2 PUSH0 PUSH2 0x100 EXP DUP2 SLOAD DUP2 PUSH20 0xFFFFFFFFFFFFFFFFFFFFFFFFFFFFFFFFFFFFFFFF MUL NOT AND SWAP1 DUP4 PUSH20 0xFFFFFFFFFFFFFFFFFFFFFFFFFFFFFFFFFFFFFFFF AND MUL OR SWAP1 SSTORE POP PUSH32 0xD1A6A14209A385A964D036E404CB5CFB71F4000CDB03C9366292430787261BE6 DUP2 PUSH1 0x40 MLOAD PUSH2 0x595 SWAP2 SWAP1 PUSH2 0xACE JUMP JUMPDEST PUSH1 0x40 MLOAD DUP1 SWAP2 SUB SWAP1 LOG1 POP JUMP JUMPDEST PUSH0 PUSH2 0x5A9 PUSH2 0x745 JUMP JUMPDEST PUSH0 PUSH1 0x2 PUSH0 SWAP1 SLOAD SWAP1 PUSH2 0x100 EXP SWAP1 DIV PUSH20 0xFFFFFFFFFFFFFFFFFFFFFFFFFFFFFFFFFFFFFFFF AND PUSH20 0xFFFFFFFFFFFFFFFFFFFFFFFFFFFFFFFFFFFFFFFF AND PUSH4 0x9B1C385E PUSH1 0x40 MLOAD DUP1 PUSH1 0xC0 ADD PUSH1 0x40 MSTORE DUP1 PUSH1 0x6 SLOAD DUP2 MSTORE PUSH1 0x20 ADD PUSH1 0x3 SLOAD DUP2 MSTORE PUSH1 0x20 ADD PUSH1 0x7 PUSH1 0x4 SWAP1 SLOAD SWAP1 PUSH2 0x100 EXP SWAP1 DIV PUSH2 0xFFFF AND PUSH2 0xFFFF AND DUP2 MSTORE PUSH1 0x20 ADD PUSH1 0x7 PUSH0 SWAP1 SLOAD SWAP1 PUSH2 0x100 EXP SWAP1 DIV PUSH4 0xFFFFFFFF AND PUSH4 0xFFFFFFFF AND DUP2 MSTORE PUSH1 0x20 ADD PUSH1 0x7 PUSH1 0x6 SWAP1 SLOAD SWAP1 PUSH2 0x100 EXP SWAP1 DIV PUSH4 0xFFFFFFFF AND PUSH4 0xFFFFFFFF AND DUP2 MSTORE PUSH1 0x20 ADD PUSH2 0x670 PUSH1 0x40 MLOAD DUP1 PUSH1 0x20 ADD PUSH1 0x40 MSTORE DUP1 DUP10 ISZERO ISZERO DUP2 MSTORE POP PUSH2 0x7D4 JUMP JUMPDEST DUP2 MSTORE POP PUSH1 0x40 MLOAD DUP3 PUSH4 0xFFFFFFFF AND PUSH1 0xE0 SHL DUP2 MSTORE PUSH1 0x4 ADD PUSH2 0x68F SWAP2 SWAP1 PUSH2 0xE63 JUMP JUMPDEST PUSH1 0x20 PUSH1 0x40 MLOAD DUP1 DUP4 SUB DUP2 PUSH0 DUP8 GAS CALL ISZERO DUP1 ISZERO PUSH2 0x6AB JUMPI RETURNDATASIZE PUSH0 DUP1 RETURNDATACOPY RETURNDATASIZE PUSH0 REVERT JUMPDEST POP POP POP POP PUSH1 0x40 MLOAD RETURNDATASIZE PUSH1 0x1F NOT PUSH1 0x1F DUP3 ADD AND DUP3 ADD DUP1 PUSH1 0x40 MSTORE POP DUP2 ADD SWAP1 PUSH2 0x6CF SWAP2 SWAP1 PUSH2 0xE97 JUMP JUMPDEST SWAP1 POP DUP1 PUSH32 0x65AAC2E6154C440CACD6BA3572FDE44877C21DBB2CF7E8016B751DD67DEDA884 PUSH1 0x40 MLOAD PUSH1 0x40 MLOAD DUP1 SWAP2 SUB SWAP1 LOG2 DUP1 SWAP2 POP POP SWAP2 SWAP1 POP JUMP JUMPDEST PUSH1 0x2 PUSH0 SWAP1 SLOAD SWAP1 PUSH2 0x100 EXP SWAP1 DIV PUSH20 0xFFFFFFFFFFFFFFFFFFFFFFFFFFFFFFFFFFFFFFFF AND DUP2 JUMP JUMPDEST PUSH2 0x734 PUSH2 0x745 JUMP JUMPDEST PUSH2 0x73D DUP2 PUSH2 0x86C JUMP JUMPDEST POP JUMP JUMPDEST POP POP POP JUMP JUMPDEST PUSH0 DUP1 SLOAD SWAP1 PUSH2 0x100 EXP SWAP1 DIV PUSH20 0xFFFFFFFFFFFFFFFFFFFFFFFFFFFFFFFFFFFFFFFF AND PUSH20 0xFFFFFFFFFFFFFFFFFFFFFFFFFFFFFFFFFFFFFFFF AND CALLER PUSH20 0xFFFFFFFFFFFFFFFFFFFFFFFFFFFFFFFFFFFFFFFF AND EQ PUSH2 0x7D2 JUMPI PUSH1 0x40 MLOAD PUSH32 0x8C379A000000000000000000000000000000000000000000000000000000000 DUP2 MSTORE PUSH1 0x4 ADD PUSH2 0x7C9 SWAP1 PUSH2 0xF0C JUMP JUMPDEST PUSH1 0x40 MLOAD DUP1 SWAP2 SUB SWAP1 REVERT JUMPDEST JUMP JUMPDEST PUSH1 0x60 PUSH32 0x92FD13387C7FE7BEFBC38D303D6468778FB9731BC4583F17D92989C6FCFDEAAA DUP3 PUSH1 0x40 MLOAD PUSH1 0x24 ADD PUSH2 0x808 SWAP2 SWAP1 PUSH2 0xF53 JUMP JUMPDEST PUSH1 0x40 MLOAD PUSH1 0x20 DUP2 DUP4 SUB SUB DUP2 MSTORE SWAP1 PUSH1 0x40 MSTORE SWAP1 PUSH28 0xFFFFFFFFFFFFFFFFFFFFFFFFFFFFFFFFFFFFFFFFFFFFFFFFFFFFFFFF NOT AND PUSH1 0x20 DUP3 ADD DUP1 MLOAD PUSH28 0xFFFFFFFFFFFFFFFFFFFFFFFFFFFFFFFFFFFFFFFFFFFFFFFFFFFFFFFF DUP4 DUP2 DUP4 AND OR DUP4 MSTORE POP POP POP POP SWAP1 POP SWAP2 SWAP1 POP JUMP JUMPDEST CALLER PUSH20 0xFFFFFFFFFFFFFFFFFFFFFFFFFFFFFFFFFFFFFFFF AND DUP2 PUSH20 0xFFFFFFFFFFFFFFFFFFFFFFFFFFFFFFFFFFFFFFFF AND SUB PUSH2 0x8DA JUMPI PUSH1 0x40 MLOAD PUSH32 0x8C379A000000000000000000000000000000000000000000000000000000000 DUP2 MSTORE PUSH1 0x4 ADD PUSH2 0x8D1 SWAP1 PUSH2 0xFB6 JUMP JUMPDEST PUSH1 0x40 MLOAD DUP1 SWAP2 SUB SWAP1 REVERT JUMPDEST DUP1 PUSH1 0x1 PUSH0 PUSH2 0x100 EXP DUP2 SLOAD DUP2 PUSH20 0xFFFFFFFFFFFFFFFFFFFFFFFFFFFFFFFFFFFFFFFF MUL NOT AND SWAP1 DUP4 PUSH20 0xFFFFFFFFFFFFFFFFFFFFFFFFFFFFFFFFFFFFFFFF AND MUL OR SWAP1 SSTORE POP DUP1 PUSH20 0xFFFFFFFFFFFFFFFFFFFFFFFFFFFFFFFFFFFFFFFF AND PUSH0 DUP1 SLOAD SWAP1 PUSH2 0x100 EXP SWAP1 DIV PUSH20 0xFFFFFFFFFFFFFFFFFFFFFFFFFFFFFFFFFFFFFFFF AND PUSH20 0xFFFFFFFFFFFFFFFFFFFFFFFFFFFFFFFFFFFFFFFF AND PUSH32 0xED8889F560326EB138920D842192F0EB3DD22B4F139C87A2C57538E05BAE1278 PUSH1 0x40 MLOAD PUSH1 0x40 MLOAD DUP1 SWAP2 SUB SWAP1 LOG3 POP JUMP JUMPDEST PUSH0 DUP1 REVERT JUMPDEST PUSH0 DUP1 REVERT JUMPDEST PUSH0 DUP2 SWAP1 POP SWAP2 SWAP1 POP JUMP JUMPDEST PUSH2 0x9B0 DUP2 PUSH2 0x99E JUMP JUMPDEST DUP2 EQ PUSH2 0x9BA JUMPI PUSH0 DUP1 REVERT JUMPDEST POP JUMP JUMPDEST PUSH0 DUP2 CALLDATALOAD SWAP1 POP PUSH2 0x9CB DUP2 PUSH2 0x9A7 JUMP JUMPDEST SWAP3 SWAP2 POP POP JUMP JUMPDEST PUSH0 DUP1 REVERT JUMPDEST PUSH0 DUP1 REVERT JUMPDEST PUSH0 DUP1 REVERT JUMPDEST PUSH0 DUP1 DUP4 PUSH1 0x1F DUP5 ADD SLT PUSH2 0x9F2 JUMPI PUSH2 0x9F1 PUSH2 0x9D1 JUMP JUMPDEST JUMPDEST DUP3 CALLDATALOAD SWAP1 POP PUSH8 0xFFFFFFFFFFFFFFFF DUP2 GT ISZERO PUSH2 0xA0F JUMPI PUSH2 0xA0E PUSH2 0x9D5 JUMP JUMPDEST JUMPDEST PUSH1 0x20 DUP4 ADD SWAP2 POP DUP4 PUSH1 0x20 DUP3 MUL DUP4 ADD GT ISZERO PUSH2 0xA2B JUMPI PUSH2 0xA2A PUSH2 0x9D9 JUMP JUMPDEST JUMPDEST SWAP3 POP SWAP3 SWAP1 POP JUMP JUMPDEST PUSH0 DUP1 PUSH0 PUSH1 0x40 DUP5 DUP7 SUB SLT ISZERO PUSH2 0xA49 JUMPI PUSH2 0xA48 PUSH2 0x996 JUMP JUMPDEST JUMPDEST PUSH0 PUSH2 0xA56 DUP7 DUP3 DUP8 ADD PUSH2 0x9BD JUMP JUMPDEST SWAP4 POP POP PUSH1 0x20 DUP5 ADD CALLDATALOAD PUSH8 0xFFFFFFFFFFFFFFFF DUP2 GT ISZERO PUSH2 0xA77 JUMPI PUSH2 0xA76 PUSH2 0x99A JUMP JUMPDEST JUMPDEST PUSH2 0xA83 DUP7 DUP3 DUP8 ADD PUSH2 0x9DD JUMP JUMPDEST SWAP3 POP SWAP3 POP POP SWAP3 POP SWAP3 POP SWAP3 JUMP JUMPDEST PUSH0 PUSH20 0xFFFFFFFFFFFFFFFFFFFFFFFFFFFFFFFFFFFFFFFF DUP3 AND SWAP1 POP SWAP2 SWAP1 POP JUMP JUMPDEST PUSH0 PUSH2 0xAB8 DUP3 PUSH2 0xA8F JUMP JUMPDEST SWAP1 POP SWAP2 SWAP1 POP JUMP JUMPDEST PUSH2 0xAC8 DUP2 PUSH2 0xAAE JUMP JUMPDEST DUP3 MSTORE POP POP JUMP JUMPDEST PUSH0 PUSH1 0x20 DUP3 ADD SWAP1 POP PUSH2 0xAE1 PUSH0 DUP4 ADD DUP5 PUSH2 0xABF JUMP JUMPDEST SWAP3 SWAP2 POP POP JUMP JUMPDEST PUSH2 0xAF0 DUP2 PUSH2 0xAAE JUMP JUMPDEST DUP2 EQ PUSH2 0xAFA JUMPI PUSH0 DUP1 REVERT JUMPDEST POP JUMP JUMPDEST PUSH0 DUP2 CALLDATALOAD SWAP1 POP PUSH2 0xB0B DUP2 PUSH2 0xAE7 JUMP JUMPDEST SWAP3 SWAP2 POP POP JUMP JUMPDEST PUSH0 PUSH1 0x20 DUP3 DUP5 SUB SLT ISZERO PUSH2 0xB26 JUMPI PUSH2 0xB25 PUSH2 0x996 JUMP JUMPDEST JUMPDEST PUSH0 PUSH2 0xB33 DUP5 DUP3 DUP6 ADD PUSH2 0xAFD JUMP JUMPDEST SWAP2 POP POP SWAP3 SWAP2 POP POP JUMP JUMPDEST PUSH0 DUP2 ISZERO ISZERO SWAP1 POP SWAP2 SWAP1 POP JUMP JUMPDEST PUSH2 0xB50 DUP2 PUSH2 0xB3C JUMP JUMPDEST DUP2 EQ PUSH2 0xB5A JUMPI PUSH0 DUP1 REVERT JUMPDEST POP JUMP JUMPDEST PUSH0 DUP2 CALLDATALOAD SWAP1 POP PUSH2 0xB6B DUP2 PUSH2 0xB47 JUMP JUMPDEST SWAP3 SWAP2 POP POP JUMP JUMPDEST PUSH0 PUSH1 0x20 DUP3 DUP5 SUB SLT ISZERO PUSH2 0xB86 JUMPI PUSH2 0xB85 PUSH2 0x996 JUMP JUMPDEST JUMPDEST PUSH0 PUSH2 0xB93 DUP5 DUP3 DUP6 ADD PUSH2 0xB5D JUMP JUMPDEST SWAP2 POP POP SWAP3 SWAP2 POP POP JUMP JUMPDEST PUSH2 0xBA5 DUP2 PUSH2 0x99E JUMP JUMPDEST DUP3 MSTORE POP POP JUMP JUMPDEST PUSH0 PUSH1 0x20 DUP3 ADD SWAP1 POP PUSH2 0xBBE PUSH0 DUP4 ADD DUP5 PUSH2 0xB9C JUMP JUMPDEST SWAP3 SWAP2 POP POP JUMP JUMPDEST PUSH0 DUP2 SWAP1 POP SWAP2 SWAP1 POP JUMP JUMPDEST PUSH0 PUSH2 0xBE7 PUSH2 0xBE2 PUSH2 0xBDD DUP5 PUSH2 0xA8F JUMP JUMPDEST PUSH2 0xBC4 JUMP JUMPDEST PUSH2 0xA8F JUMP JUMPDEST SWAP1 POP SWAP2 SWAP1 POP JUMP JUMPDEST PUSH0 PUSH2 0xBF8 DUP3 PUSH2 0xBCD JUMP JUMPDEST SWAP1 POP SWAP2 SWAP1 POP JUMP JUMPDEST PUSH0 PUSH2 0xC09 DUP3 PUSH2 0xBEE JUMP JUMPDEST SWAP1 POP SWAP2 SWAP1 POP JUMP JUMPDEST PUSH2 0xC19 DUP2 PUSH2 0xBFF JUMP JUMPDEST DUP3 MSTORE POP POP JUMP JUMPDEST PUSH0 PUSH1 0x20 DUP3 ADD SWAP1 POP PUSH2 0xC32 PUSH0 DUP4 ADD DUP5 PUSH2 0xC10 JUMP JUMPDEST SWAP3 SWAP2 POP POP JUMP JUMPDEST PUSH0 PUSH1 0x40 DUP3 ADD SWAP1 POP PUSH2 0xC4B PUSH0 DUP4 ADD DUP6 PUSH2 0xABF JUMP JUMPDEST PUSH2 0xC58 PUSH1 0x20 DUP4 ADD DUP5 PUSH2 0xABF JUMP JUMPDEST SWAP4 SWAP3 POP POP POP JUMP JUMPDEST PUSH0 DUP3 DUP3 MSTORE PUSH1 0x20 DUP3 ADD SWAP1 POP SWAP3 SWAP2 POP POP JUMP JUMPDEST PUSH32 0x4D7573742062652070726F706F736564206F776E657200000000000000000000 PUSH0 DUP3 ADD MSTORE POP JUMP JUMPDEST PUSH0 PUSH2 0xCA3 PUSH1 0x16 DUP4 PUSH2 0xC5F JUMP JUMPDEST SWAP2 POP PUSH2 0xCAE DUP3 PUSH2 0xC6F JUMP JUMPDEST PUSH1 0x20 DUP3 ADD SWAP1 POP SWAP2 SWAP1 POP JUMP JUMPDEST PUSH0 PUSH1 0x20 DUP3 ADD SWAP1 POP DUP2 DUP2 SUB PUSH0 DUP4 ADD MSTORE PUSH2 0xCD0 DUP2 PUSH2 0xC97 JUMP JUMPDEST SWAP1 POP SWAP2 SWAP1 POP JUMP JUMPDEST PUSH0 PUSH1 0x60 DUP3 ADD SWAP1 POP PUSH2 0xCEA PUSH0 DUP4 ADD DUP7 PUSH2 0xABF JUMP JUMPDEST PUSH2 0xCF7 PUSH1 0x20 DUP4 ADD DUP6 PUSH2 0xABF JUMP JUMPDEST PUSH2 0xD04 PUSH1 0x40 DUP4 ADD DUP5 PUSH2 0xABF JUMP JUMPDEST SWAP5 SWAP4 POP POP POP POP JUMP JUMPDEST PUSH0 DUP2 SWAP1 POP SWAP2 SWAP1 POP JUMP JUMPDEST PUSH2 0xD1E DUP2 PUSH2 0xD0C JUMP JUMPDEST DUP3 MSTORE POP POP JUMP JUMPDEST PUSH2 0xD2D DUP2 PUSH2 0x99E JUMP JUMPDEST DUP3 MSTORE POP POP JUMP JUMPDEST PUSH0 PUSH2 0xFFFF DUP3 AND SWAP1 POP SWAP2 SWAP1 POP JUMP JUMPDEST PUSH2 0xD49 DUP2 PUSH2 0xD33 JUMP JUMPDEST DUP3 MSTORE POP POP JUMP JUMPDEST PUSH0 PUSH4 0xFFFFFFFF DUP3 AND SWAP1 POP SWAP2 SWAP1 POP JUMP JUMPDEST PUSH2 0xD67 DUP2 PUSH2 0xD4F JUMP JUMPDEST DUP3 MSTORE POP POP JUMP JUMPDEST PUSH0 DUP2 MLOAD SWAP1 POP SWAP2 SWAP1 POP JUMP JUMPDEST PUSH0 DUP3 DUP3 MSTORE PUSH1 0x20 DUP3 ADD SWAP1 POP SWAP3 SWAP2 POP POP JUMP JUMPDEST DUP3 DUP2 DUP4 MCOPY PUSH0 DUP4 DUP4 ADD MSTORE POP POP POP JUMP JUMPDEST PUSH0 PUSH1 0x1F NOT PUSH1 0x1F DUP4 ADD AND SWAP1 POP SWAP2 SWAP1 POP JUMP JUMPDEST PUSH0 PUSH2 0xDAF DUP3 PUSH2 0xD6D JUMP JUMPDEST PUSH2 0xDB9 DUP2 DUP6 PUSH2 0xD77 JUMP JUMPDEST SWAP4 POP PUSH2 0xDC9 DUP2 DUP6 PUSH1 0x20 DUP7 ADD PUSH2 0xD87 JUMP JUMPDEST PUSH2 0xDD2 DUP2 PUSH2 0xD95 JUMP JUMPDEST DUP5 ADD SWAP2 POP POP SWAP3 SWAP2 POP POP JUMP JUMPDEST PUSH0 PUSH1 0xC0 DUP4 ADD PUSH0 DUP4 ADD MLOAD PUSH2 0xDF2 PUSH0 DUP7 ADD DUP3 PUSH2 0xD15 JUMP JUMPDEST POP PUSH1 0x20 DUP4 ADD MLOAD PUSH2 0xE05 PUSH1 0x20 DUP7 ADD DUP3 PUSH2 0xD24 JUMP JUMPDEST POP PUSH1 0x40 DUP4 ADD MLOAD PUSH2 0xE18 PUSH1 0x40 DUP7 ADD DUP3 PUSH2 0xD40 JUMP JUMPDEST POP PUSH1 0x60 DUP4 ADD MLOAD PUSH2 0xE2B PUSH1 0x60 DUP7 ADD DUP3 PUSH2 0xD5E JUMP JUMPDEST POP PUSH1 0x80 DUP4 ADD MLOAD PUSH2 0xE3E PUSH1 0x80 DUP7 ADD DUP3 PUSH2 0xD5E JUMP JUMPDEST POP PUSH1 0xA0 DUP4 ADD MLOAD DUP5 DUP3 SUB PUSH1 0xA0 DUP7 ADD MSTORE PUSH2 0xE56 DUP3 DUP3 PUSH2 0xDA5 JUMP JUMPDEST SWAP2 POP POP DUP1 SWAP2 POP POP SWAP3 SWAP2 POP POP JUMP JUMPDEST PUSH0 PUSH1 0x20 DUP3 ADD SWAP1 POP DUP2 DUP2 SUB PUSH0 DUP4 ADD MSTORE PUSH2 0xE7B DUP2 DUP5 PUSH2 0xDDD JUMP JUMPDEST SWAP1 POP SWAP3 SWAP2 POP POP JUMP JUMPDEST PUSH0 DUP2 MLOAD SWAP1 POP PUSH2 0xE91 DUP2 PUSH2 0x9A7 JUMP JUMPDEST SWAP3 SWAP2 POP POP JUMP JUMPDEST PUSH0 PUSH1 0x20 DUP3 DUP5 SUB SLT ISZERO PUSH2 0xEAC JUMPI PUSH2 0xEAB PUSH2 0x996 JUMP JUMPDEST JUMPDEST PUSH0 PUSH2 0xEB9 DUP5 DUP3 DUP6 ADD PUSH2 0xE83 JUMP JUMPDEST SWAP2 POP POP SWAP3 SWAP2 POP POP JUMP JUMPDEST PUSH32 0x4F6E6C792063616C6C61626C65206279206F776E657200000000000000000000 PUSH0 DUP3 ADD MSTORE POP JUMP JUMPDEST PUSH0 PUSH2 0xEF6 PUSH1 0x16 DUP4 PUSH2 0xC5F JUMP JUMPDEST SWAP2 POP PUSH2 0xF01 DUP3 PUSH2 0xEC2 JUMP JUMPDEST PUSH1 0x20 DUP3 ADD SWAP1 POP SWAP2 SWAP1 POP JUMP JUMPDEST PUSH0 PUSH1 0x20 DUP3 ADD SWAP1 POP DUP2 DUP2 SUB PUSH0 DUP4 ADD MSTORE PUSH2 0xF23 DUP2 PUSH2 0xEEA JUMP JUMPDEST SWAP1 POP SWAP2 SWAP1 POP JUMP JUMPDEST PUSH2 0xF33 DUP2 PUSH2 0xB3C JUMP JUMPDEST DUP3 MSTORE POP POP JUMP JUMPDEST PUSH1 0x20 DUP3 ADD PUSH0 DUP3 ADD MLOAD PUSH2 0xF4D PUSH0 DUP6 ADD DUP3 PUSH2 0xF2A JUMP JUMPDEST POP POP POP POP JUMP JUMPDEST PUSH0 PUSH1 0x20 DUP3 ADD SWAP1 POP PUSH2 0xF66 PUSH0 DUP4 ADD DUP5 PUSH2 0xF39 JUMP JUMPDEST SWAP3 SWAP2 POP POP JUMP JUMPDEST PUSH32 0x43616E6E6F74207472616E7366657220746F2073656C66000000000000000000 PUSH0 DUP3 ADD MSTORE POP JUMP JUMPDEST PUSH0 PUSH2 0xFA0 PUSH1 0x17 DUP4 PUSH2 0xC5F JUMP JUMPDEST SWAP2 POP PUSH2 0xFAB DUP3 PUSH2 0xF6C JUMP JUMPDEST PUSH1 0x20 DUP3 ADD SWAP1 POP SWAP2 SWAP1 POP JUMP JUMPDEST PUSH0 PUSH1 0x20 DUP3 ADD SWAP1 POP DUP2 DUP2 SUB PUSH0 DUP4 ADD MSTORE PUSH2 0xFCD DUP2 PUSH2 0xF94 JUMP JUMPDEST SWAP1 POP SWAP2 SWAP1 POP JUMP INVALID LOG2 PUSH5 0x6970667358 0x22 SLT KECCAK256 0xF9 EQ 0xB6 ADDRESS OR 0xB9 SWAP9 0xDE SELFDESTRUCT 0xBE SWAP14 0xBB 0xAB LT SWAP5 0x29 0xDC 0xD5 0xD4 BLOBBASEFEE PUSH24 0x81CE9865B20D750B33C79164736F6C634300081A00330000 "
				},
				"gasEstimates": {
					"creation": {
						"codeDepositCost": "821200",
						"executionCost": "infinite",
						"totalCost": "infinite"
					},
					"external": {
						"acceptOwnership()": "54556",
						"owner()": "2560",
						"randomReq(bool)": "infinite",
						"rawFulfillRandomWords(uint256,uint256[])": "infinite",
						"s_vrfCoordinator()": "infinite",
						"setCoordinator(address)": "infinite",
						"transferOwnership(address)": "30711"
					},
					"internal": {
						"fulfillRandomWords(uint256,uint256[] calldata)": "15"
					}
				},
				"methodIdentifiers": {
					"acceptOwnership()": "79ba5097",
					"owner()": "8da5cb5b",
					"randomReq(bool)": "99805d56",
					"rawFulfillRandomWords(uint256,uint256[])": "1fe543e3",
					"s_vrfCoordinator()": "9eccacf6",
					"setCoordinator(address)": "8ea98117",
					"transferOwnership(address)": "f2fde38b"
				}
			},
			"storageLayout": {
				"storage": [
					{
						"astId": 29,
						"contract": "consumer/x.sol:VrfGen",
						"label": "s_owner",
						"offset": 0,
						"slot": "0",
						"type": "t_address"
					},
					{
						"astId": 31,
						"contract": "consumer/x.sol:VrfGen",
						"label": "s_pendingOwner",
						"offset": 0,
						"slot": "1",
						"type": "t_address"
					},
					{
						"astId": 231,
						"contract": "consumer/x.sol:VrfGen",
						"label": "s_vrfCoordinator",
						"offset": 0,
						"slot": "2",
						"type": "t_contract(IVRFCoordinatorV2Plus)380"
					},
					{
						"astId": 535,
						"contract": "consumer/x.sol:VrfGen",
						"label": "s_subscriptionId",
						"offset": 0,
						"slot": "3",
						"type": "t_uint256"
					},
					{
						"astId": 537,
						"contract": "consumer/x.sol:VrfGen",
						"label": "s_owner",
						"offset": 0,
						"slot": "4",
						"type": "t_address"
					},
					{
						"astId": 540,
						"contract": "consumer/x.sol:VrfGen",
						"label": "vrfCoordinator",
						"offset": 0,
						"slot": "5",
						"type": "t_address"
					},
					{
						"astId": 543,
						"contract": "consumer/x.sol:VrfGen",
						"label": "s_keyHash",
						"offset": 0,
						"slot": "6",
						"type": "t_bytes32"
					},
					{
						"astId": 546,
						"contract": "consumer/x.sol:VrfGen",
						"label": "callbackGasLimit",
						"offset": 0,
						"slot": "7",
						"type": "t_uint32"
					},
					{
						"astId": 549,
						"contract": "consumer/x.sol:VrfGen",
						"label": "requestConfirmations",
						"offset": 4,
						"slot": "7",
						"type": "t_uint16"
					},
					{
						"astId": 552,
						"contract": "consumer/x.sol:VrfGen",
						"label": "numWords",
						"offset": 6,
						"slot": "7",
						"type": "t_uint32"
					}
				],
				"types": {
					"t_address": {
						"encoding": "inplace",
						"label": "address",
						"numberOfBytes": "20"
					},
					"t_bytes32": {
						"encoding": "inplace",
						"label": "bytes32",
						"numberOfBytes": "32"
					},
					"t_contract(IVRFCoordinatorV2Plus)380": {
						"encoding": "inplace",
						"label": "contract IVRFCoordinatorV2Plus",
						"numberOfBytes": "20"
					},
					"t_uint16": {
						"encoding": "inplace",
						"label": "uint16",
						"numberOfBytes": "2"
					},
					"t_uint256": {
						"encoding": "inplace",
						"label": "uint256",
						"numberOfBytes": "32"
					},
					"t_uint32": {
						"encoding": "inplace",
						"label": "uint32",
						"numberOfBytes": "4"
					}
				}
			},
			"userdoc": {
				"kind": "user",
				"methods": {
					"acceptOwnership()": {
						"notice": "Allows an ownership transfer to be completed by the recipient."
					},
					"owner()": {
						"notice": "Get the current owner"
					},
					"setCoordinator(address)": {
						"notice": "Sets the VRF Coordinator addressThis method should only be callable by the coordinator or contract owner"
					},
					"transferOwnership(address)": {
						"notice": "Allows an owner to begin transferring ownership to a new address."
					}
				},
				"version": 1
			}
		}
	}
}